{
  "_format": "hh-sol-artifact-1",
  "contractName": "ChainlinkProxyConsumer",
  "sourceName": "contracts/test/examples/ChainlinkProxyConsumer.sol",
  "abi": [
    {
      "inputs": [
        {
          "internalType": "address",
          "name": "feedAddress",
          "type": "address"
        }
      ],
      "stateMutability": "nonpayable",
      "type": "constructor"
    },
    {
      "inputs": [],
      "name": "feed",
      "outputs": [
        {
          "internalType": "contract IChainlinkAggregator",
          "name": "",
          "type": "address"
        }
      ],
      "stateMutability": "view",
      "type": "function"
    },
    {
      "inputs": [],
      "name": "getDecimals",
      "outputs": [
        {
          "internalType": "uint8",
          "name": "decimals_",
          "type": "uint8"
        }
      ],
      "stateMutability": "view",
      "type": "function"
    },
    {
      "inputs": [],
      "name": "getDescription",
      "outputs": [
        {
          "internalType": "string",
          "name": "description_",
          "type": "string"
        }
      ],
      "stateMutability": "view",
      "type": "function"
    },
    {
      "inputs": [],
      "name": "getLatestAnswer",
      "outputs": [
        {
          "internalType": "uint256",
          "name": "answer",
          "type": "uint256"
        }
      ],
      "stateMutability": "view",
      "type": "function"
    },
    {
      "inputs": [],
      "name": "getLatestRound",
      "outputs": [
        {
          "internalType": "uint256",
          "name": "roundId",
          "type": "uint256"
        }
      ],
      "stateMutability": "view",
      "type": "function"
    },
    {
      "inputs": [],
      "name": "getLatestRoundData",
      "outputs": [
        {
          "internalType": "uint80",
          "name": "roundId",
          "type": "uint80"
        },
        {
          "internalType": "int256",
          "name": "answer",
          "type": "int256"
        },
        {
          "internalType": "uint256",
          "name": "startedAt",
          "type": "uint256"
        },
        {
          "internalType": "uint256",
          "name": "updatedAt",
          "type": "uint256"
        },
        {
          "internalType": "uint80",
          "name": "answeredInRound",
          "type": "uint80"
        }
      ],
      "stateMutability": "view",
      "type": "function"
    },
    {
      "inputs": [
        {
          "internalType": "uint80",
          "name": "roundId",
          "type": "uint80"
        }
      ],
      "name": "getRoundData",
      "outputs": [
        {
          "internalType": "uint80",
          "name": "roundId_",
          "type": "uint80"
        },
        {
          "internalType": "int256",
          "name": "answer",
          "type": "int256"
        },
        {
          "internalType": "uint256",
          "name": "startedAt",
          "type": "uint256"
        },
        {
          "internalType": "uint256",
          "name": "updatedAt",
          "type": "uint256"
        },
        {
          "internalType": "uint80",
          "name": "answeredInRound",
          "type": "uint80"
        }
      ],
      "stateMutability": "view",
      "type": "function"
    }
  ],
  "bytecode": "0x60a060405234801561001057600080fd5b5060405161078138038061078183398101604081905261002f91610040565b6001600160a01b0316608052610070565b60006020828403121561005257600080fd5b81516001600160a01b038116811461006957600080fd5b9392505050565b6080516106cd6100b46000396000818160e40152818161016d015281816102000152818161029501528181610319015281816103a9015261042a01526106cd6000f3fe608060405234801561001057600080fd5b506004361061007d5760003560e01c8063708fe4df1161005b578063708fe4df1461011e57806396237c02146101345780639a6fc8f51461013c578063f0141d841461014f57600080fd5b80631a092541146100825780632daae2f3146100a057806337a7b7d8146100df575b600080fd5b61008a610169565b60405161009791906104ce565b60405180910390f35b6100a86101f6565b6040805169ffffffffffffffffffff968716815260208101959095528401929092526060830152909116608082015260a001610097565b6101067f000000000000000000000000000000000000000000000000000000000000000081565b6040516001600160a01b039091168152602001610097565b610126610291565b604051908152602001610097565b610126610315565b6100a861014a36600461051c565b610375565b610157610426565b60405160ff9091168152602001610097565b60607f00000000000000000000000000000000000000000000000000000000000000006001600160a01b0316637284e4166040518163ffffffff1660e01b8152600401600060405180830381865afa1580156101c9573d6000803e3d6000fd5b505050506040513d6000823e601f3d908101601f191682016040526101f19190810190610556565b905090565b60008060008060007f00000000000000000000000000000000000000000000000000000000000000006001600160a01b031663feaf968c6040518163ffffffff1660e01b815260040160a060405180830381865afa15801561025c573d6000803e3d6000fd5b505050506040513d601f19601f820116820180604052508101906102809190610603565b945094509450945094509091929394565b60007f00000000000000000000000000000000000000000000000000000000000000006001600160a01b031663668a0f026040518163ffffffff1660e01b8152600401602060405180830381865afa1580156102f1573d6000803e3d6000fd5b505050506040513d601f19601f820116820180604052508101906101f1919061065b565b60007f00000000000000000000000000000000000000000000000000000000000000006001600160a01b03166350d25bcd6040518163ffffffff1660e01b8152600401602060405180830381865afa1580156102f1573d6000803e3d6000fd5b604051639a6fc8f560e01b815269ffffffffffffffffffff8216600482015260009081908190819081906001600160a01b037f00000000000000000000000000000000000000000000000000000000000000001690639a6fc8f59060240160a060405180830381865afa1580156103f0573d6000803e3d6000fd5b505050506040513d601f19601f820116820180604052508101906104149190610603565b939a9299509097509550909350915050565b60007f00000000000000000000000000000000000000000000000000000000000000006001600160a01b031663313ce5676040518163ffffffff1660e01b8152600401602060405180830381865afa158015610486573d6000803e3d6000fd5b505050506040513d601f19601f820116820180604052508101906101f19190610674565b60005b838110156104c55781810151838201526020016104ad565b50506000910152565b60208152600082518060208401526104ed8160408501602087016104aa565b601f01601f19169190910160400192915050565b69ffffffffffffffffffff8116811461051957600080fd5b50565b60006020828403121561052e57600080fd5b813561053981610501565b9392505050565b634e487b7160e01b600052604160045260246000fd5b60006020828403121561056857600080fd5b815167ffffffffffffffff8082111561058057600080fd5b818401915084601f83011261059457600080fd5b8151818111156105a6576105a6610540565b604051601f8201601f19908116603f011681019083821181831017156105ce576105ce610540565b816040528281528760208487010111156105e757600080fd5b6105f88360208301602088016104aa565b979650505050505050565b600080600080600060a0868803121561061b57600080fd5b855161062681610501565b80955050602086015193506040860151925060608601519150608086015161064d81610501565b809150509295509295909350565b60006020828403121561066d57600080fd5b5051919050565b60006020828403121561068657600080fd5b815160ff8116811461053957600080fdfea2646970667358221220870c24a50b1f9d2cc623ae8dedd623f393ea587eeb8e4b88ad7592971d236fd264736f6c63430008180033",
  "linkReferences": {},
  "deployedLinkReferences": {}
}