{
  "_format": "hh-sol-artifact-1",
  "contractName": "SportsDataFeedStoreGenericV2",
  "sourceName": "contracts/test/sports/SportsDataFeedStoreGenericV2.sol",
  "abi": [
    {
      "inputs": [],
      "stateMutability": "nonpayable",
      "type": "constructor"
    },
    {
      "inputs": [],
      "name": "NotAuthorized",
      "type": "error"
    },
    {
      "inputs": [],
      "name": "WrongInputLength",
      "type": "error"
    },
    {
      "anonymous": false,
      "inputs": [
        {
          "indexed": false,
          "internalType": "uint32",
          "name": "key",
          "type": "uint32"
        },
        {
          "indexed": false,
          "internalType": "bytes32",
          "name": "description",
          "type": "bytes32"
        }
      ],
      "name": "DataFeedSet",
      "type": "event"
    },
    {
      "inputs": [
        {
          "internalType": "uint256",
          "name": "",
          "type": "uint256"
        },
        {
          "internalType": "uint256",
          "name": "",
          "type": "uint256"
        }
      ],
      "name": "dataFeeds",
      "outputs": [
        {
          "internalType": "bytes32",
          "name": "",
          "type": "bytes32"
        }
      ],
      "stateMutability": "view",
      "type": "function"
    },
    {
      "inputs": [
        {
          "internalType": "uint256",
          "name": "key",
          "type": "uint256"
        }
      ],
      "name": "getDataFeed",
      "outputs": [
        {
          "internalType": "bytes32[]",
          "name": "",
          "type": "bytes32[]"
        }
      ],
      "stateMutability": "view",
      "type": "function"
    },
    {
      "inputs": [],
      "name": "owner",
      "outputs": [
        {
          "internalType": "address",
          "name": "",
          "type": "address"
        }
      ],
      "stateMutability": "view",
      "type": "function"
    },
    {
      "inputs": [
        {
          "internalType": "uint256[]",
          "name": "keys",
          "type": "uint256[]"
        },
        {
          "internalType": "bytes32[][]",
          "name": "values",
          "type": "bytes32[][]"
        },
        {
          "internalType": "bytes32[]",
          "name": "descriptions",
          "type": "bytes32[]"
        }
      ],
      "name": "setFeeds",
      "outputs": [],
      "stateMutability": "nonpayable",
      "type": "function"
    }
  ],
  "bytecode": "0x60a060405234801561001057600080fd5b5033608052608051610518610035600039600081816094015260fa01526105186000f3fe608060405234801561001057600080fd5b506004361061004c5760003560e01c80630dce79fb146100515780631c4e987b146100665780638da5cb5b1461008f578063e54e0ecd146100ce575b600080fd5b61006461005f366004610369565b6100ef565b005b610079610074366004610403565b61022c565b604051610086919061041c565b60405180910390f35b6100b67f000000000000000000000000000000000000000000000000000000000000000081565b6040516001600160a01b039091168152602001610086565b6100e16100dc366004610460565b61028c565b604051908152602001610086565b336001600160a01b037f000000000000000000000000000000000000000000000000000000000000000016146101385760405163ea8e4eb560e01b815260040160405180910390fd5b8483811461015957604051631201d2c760e31b815260040160405180910390fd5b60005b8181101561022257600088888381811061017857610178610482565b90506020020135905086868381811061019357610193610482565b90506020028101906101a59190610498565b60008381526020819052604090206101be9290916102bd565b507f2490cbe182701afbb80ee94866e224c57b7740452103132ebab560999a71a920818686858181106101f3576101f3610482565b6040805163ffffffff90951685526020918202939093013590840152500160405180910390a15060010161015c565b5050505050505050565b6000818152602081815260409182902080548351818402810184019094528084526060939283018282801561028057602002820191906000526020600020905b81548152602001906001019080831161026c575b50505050509050919050565b600060205281600052604060002081815481106102a857600080fd5b90600052602060002001600091509150505481565b8280548282559060005260206000209081019282156102f8579160200282015b828111156102f85782358255916020019190600101906102dd565b50610304929150610308565b5090565b5b808211156103045760008155600101610309565b60008083601f84011261032f57600080fd5b50813567ffffffffffffffff81111561034757600080fd5b6020830191508360208260051b850101111561036257600080fd5b9250929050565b6000806000806000806060878903121561038257600080fd5b863567ffffffffffffffff8082111561039a57600080fd5b6103a68a838b0161031d565b909850965060208901359150808211156103bf57600080fd5b6103cb8a838b0161031d565b909650945060408901359150808211156103e457600080fd5b506103f189828a0161031d565b979a9699509497509295939492505050565b60006020828403121561041557600080fd5b5035919050565b6020808252825182820181905260009190848201906040850190845b8181101561045457835183529284019291840191600101610438565b50909695505050505050565b6000806040838503121561047357600080fd5b50508035926020909101359150565b634e487b7160e01b600052603260045260246000fd5b6000808335601e198436030181126104af57600080fd5b83018035915067ffffffffffffffff8211156104ca57600080fd5b6020019150600581901b360382131561036257600080fdfea26469706673582212209dcd4da930f824b9a12b450e126931d2386c287df2438fba0eb965bf1db00e0b64736f6c63430008180033",
  "linkReferences": {},
  "deployedLinkReferences": {}
}