{
  "_format": "hh-sol-artifact-1",
  "contractName": "SportsGenericV1Consumer",
  "sourceName": "contracts/test/consumers/sports/SportsGenericV1Consumer.sol",
  "abi": [
    {
      "inputs": [
        {
          "internalType": "address",
          "name": "_dataFeedStore",
          "type": "address"
        }
      ],
      "stateMutability": "nonpayable",
      "type": "constructor"
    },
    {
      "anonymous": false,
      "inputs": [],
      "name": "DataDecoded",
      "type": "event"
    },
    {
      "inputs": [
        {
          "internalType": "uint32",
          "name": "key",
          "type": "uint32"
        }
      ],
      "name": "decodeBasketballData",
      "outputs": [
        {
          "components": [
            {
              "internalType": "uint32",
              "name": "homeScore",
              "type": "uint32"
            },
            {
              "internalType": "uint32",
              "name": "awayScore",
              "type": "uint32"
            },
            {
              "internalType": "uint32",
              "name": "homeShots",
              "type": "uint32"
            },
            {
              "internalType": "uint32",
              "name": "awayShots",
              "type": "uint32"
            },
            {
              "internalType": "uint32",
              "name": "homeBlocks",
              "type": "uint32"
            },
            {
              "internalType": "uint32",
              "name": "awayBlocks",
              "type": "uint32"
            },
            {
              "internalType": "uint32",
              "name": "homeSteals",
              "type": "uint32"
            },
            {
              "internalType": "uint32",
              "name": "awaySteals",
              "type": "uint32"
            },
            {
              "internalType": "uint32",
              "name": "homeTurnovers",
              "type": "uint32"
            },
            {
              "internalType": "uint32",
              "name": "awayTurnovers",
              "type": "uint32"
            },
            {
              "internalType": "uint32",
              "name": "homeFirstQtrScore",
              "type": "uint32"
            },
            {
              "internalType": "uint32",
              "name": "awayFirstQtrScore",
              "type": "uint32"
            },
            {
              "internalType": "uint32",
              "name": "homeSecondQtrScore",
              "type": "uint32"
            },
            {
              "internalType": "uint32",
              "name": "awaySecondQtrScore",
              "type": "uint32"
            },
            {
              "internalType": "uint32",
              "name": "homeThirdQtrScore",
              "type": "uint32"
            },
            {
              "internalType": "uint32",
              "name": "awayThirdQtrScore",
              "type": "uint32"
            },
            {
              "internalType": "uint32",
              "name": "homeFourthQtrScore",
              "type": "uint32"
            },
            {
              "internalType": "uint32",
              "name": "awayFourthQtrScore",
              "type": "uint32"
            }
          ],
          "internalType": "struct SportsDecoder.BasketballData",
          "name": "",
          "type": "tuple"
        }
      ],
      "stateMutability": "nonpayable",
      "type": "function"
    },
    {
      "inputs": [
        {
          "internalType": "uint32",
          "name": "key",
          "type": "uint32"
        }
      ],
      "name": "decodeFootballData",
      "outputs": [
        {
          "components": [
            {
              "internalType": "uint32",
              "name": "homeScore",
              "type": "uint32"
            },
            {
              "internalType": "uint32",
              "name": "awayScore",
              "type": "uint32"
            },
            {
              "internalType": "uint32",
              "name": "homeShots",
              "type": "uint32"
            },
            {
              "internalType": "uint32",
              "name": "awayShots",
              "type": "uint32"
            },
            {
              "internalType": "uint32",
              "name": "homePenalties",
              "type": "uint32"
            },
            {
              "internalType": "uint32",
              "name": "awayPenalties",
              "type": "uint32"
            },
            {
              "internalType": "uint32",
              "name": "homeSaves",
              "type": "uint32"
            },
            {
              "internalType": "uint32",
              "name": "awaySaves",
              "type": "uint32"
            },
            {
              "internalType": "uint32",
              "name": "homeFirstHalfTimeScore",
              "type": "uint32"
            },
            {
              "internalType": "uint32",
              "name": "awayFirstHalfTimeScore",
              "type": "uint32"
            }
          ],
          "internalType": "struct SportsDecoder.FootballData",
          "name": "",
          "type": "tuple"
        }
      ],
      "stateMutability": "nonpayable",
      "type": "function"
    }
  ],
  "bytecode": "0x60a060405234801561001057600080fd5b5060405161096c38038061096c83398101604081905261002f91610040565b6001600160a01b0316608052610070565b60006020828403121561005257600080fd5b81516001600160a01b038116811461006957600080fd5b9392505050565b6080516108db6100916000396000818160b1015261016701526108db6000f3fe608060405234801561001057600080fd5b50600436106100365760003560e01c8063c011fb271461003b578063c44f3d0314610064575b600080fd5b61004e610049366004610566565b610084565b60405161005b919061058c565b60405180910390f35b610077610072366004610566565b61013a565b60405161005b91906106d9565b61008c61047e565b604051630473edc760e21b815263ffffffff83166004820152600360248201526000907f00000000000000000000000000000000000000000000000000000000000000006001600160a01b0316906311cfb71c90604401600060405180830381865afa158015610100573d6000803e3d6000fd5b505050506040513d6000823e601f3d908101601f1916820160405261012891908101906107d1565b9050610133816101e9565b9392505050565b610142610512565b604051630473edc760e21b815263ffffffff83166004820152600260248201526000907f00000000000000000000000000000000000000000000000000000000000000006001600160a01b0316906311cfb71c90604401600060405180830381865afa1580156101b6573d6000803e3d6000fd5b505050506040513d6000823e601f3d908101601f191682016040526101de91908101906107d1565b905061013381610354565b6101f161047e565b6040517f015dff2feb2fdfc405dcabf9ccbbf574c8de1dbfdf545b254839d7510df98a5190600090a160008260008151811061022f5761022f61088f565b602002602001015160001c90506000836001815181106102515761025161088f565b602002602001015160001c90506000846002815181106102735761027361088f565b602090810291909101810151604080516102408101825260e087811c825263ffffffff60c089811c82168488015260a08a811c83168587015260808b811c84166060808801919091528c811c8516828801528c881c8516838801528c8a1c8516848801529b841685870152938a901c6101008601529089901c821661012085015288901c81166101408401529087901c81166101608301529686901c87166101808201529085901c86166101a082015284831c86166101c08201529385166101e08501529081901c8416610200840152929092166102208201529392505050565b61035c610512565b6040517f015dff2feb2fdfc405dcabf9ccbbf574c8de1dbfdf545b254839d7510df98a5190600090a160008260008151811061039a5761039a61088f565b602002602001015160001c90506000836001815181106103bc576103bc61088f565b602002602001015160001c905060405180610140016040528060e084901c63ffffffff16815260200160c084901c63ffffffff16815260200160a084901c63ffffffff168152602001608084901c63ffffffff168152602001606084901c63ffffffff168152602001604084901c63ffffffff168152602001602084901c63ffffffff1681526020018363ffffffff16815260200160208367ffffffffffffffff16901c63ffffffff1681526020018263ffffffff1681525092505050919050565b6040805161024081018252600080825260208201819052918101829052606081018290526080810182905260a0810182905260c0810182905260e08101829052610100810182905261012081018290526101408101829052610160810182905261018081018290526101a081018290526101c081018290526101e08101829052610200810182905261022081019190915290565b6040805161014081018252600080825260208201819052918101829052606081018290526080810182905260a0810182905260c0810182905260e08101829052610100810182905261012081019190915290565b60006020828403121561057857600080fd5b813563ffffffff8116811461013357600080fd5b815163ffffffff168152610240810160208301516105b2602084018263ffffffff169052565b5060408301516105ca604084018263ffffffff169052565b5060608301516105e2606084018263ffffffff169052565b5060808301516105fa608084018263ffffffff169052565b5060a083015161061260a084018263ffffffff169052565b5060c083015161062a60c084018263ffffffff169052565b5060e083015161064260e084018263ffffffff169052565b506101008381015163ffffffff90811691840191909152610120808501518216908401526101408085015182169084015261016080850151821690840152610180808501518216908401526101a0808501518216908401526101c0808501518216908401526101e080850151821690840152610200808501518216908401526102208085015191821681850152905b505092915050565b815163ffffffff168152610140810160208301516106ff602084018263ffffffff169052565b506040830151610717604084018263ffffffff169052565b50606083015161072f606084018263ffffffff169052565b506080830151610747608084018263ffffffff169052565b5060a083015161075f60a084018263ffffffff169052565b5060c083015161077760c084018263ffffffff169052565b5060e083015161078f60e084018263ffffffff169052565b506101008381015163ffffffff81168483015250506101208381015163ffffffff8116848301526106d1565b634e487b7160e01b600052604160045260246000fd5b600060208083850312156107e457600080fd5b825167ffffffffffffffff808211156107fc57600080fd5b818501915085601f83011261081057600080fd5b815181811115610822576108226107bb565b8060051b604051601f19603f83011681018181108582111715610847576108476107bb565b60405291825284820192508381018501918883111561086557600080fd5b938501935b828510156108835784518452938501939285019261086a565b98975050505050505050565b634e487b7160e01b600052603260045260246000fdfea2646970667358221220fd19746fccee97abde9fbe10e3832926bc6b28417360e3e9e7d4dfa665bcd9ba64736f6c63430008180033",
  "linkReferences": {},
  "deployedLinkReferences": {}
}