{
  "_format": "hh-sol-artifact-1",
  "contractName": "RegistryConsumer",
  "sourceName": "contracts/test/examples/RegistryConsumer.sol",
  "abi": [
    {
      "inputs": [
        {
          "internalType": "address",
          "name": "_registry",
          "type": "address"
        }
      ],
      "stateMutability": "nonpayable",
      "type": "constructor"
    },
    {
      "inputs": [
        {
          "internalType": "address",
          "name": "base",
          "type": "address"
        },
        {
          "internalType": "address",
          "name": "quote",
          "type": "address"
        }
      ],
      "name": "getDecimals",
      "outputs": [
        {
          "internalType": "uint8",
          "name": "decimals",
          "type": "uint8"
        }
      ],
      "stateMutability": "view",
      "type": "function"
    },
    {
      "inputs": [
        {
          "internalType": "address",
          "name": "base",
          "type": "address"
        },
        {
          "internalType": "address",
          "name": "quote",
          "type": "address"
        }
      ],
      "name": "getDescription",
      "outputs": [
        {
          "internalType": "string",
          "name": "description",
          "type": "string"
        }
      ],
      "stateMutability": "view",
      "type": "function"
    },
    {
      "inputs": [
        {
          "internalType": "address",
          "name": "base",
          "type": "address"
        },
        {
          "internalType": "address",
          "name": "quote",
          "type": "address"
        }
      ],
      "name": "getFeed",
      "outputs": [
        {
          "internalType": "contract IChainlinkAggregator",
          "name": "feed",
          "type": "address"
        }
      ],
      "stateMutability": "view",
      "type": "function"
    },
    {
      "inputs": [
        {
          "internalType": "address",
          "name": "base",
          "type": "address"
        },
        {
          "internalType": "address",
          "name": "quote",
          "type": "address"
        }
      ],
      "name": "getLatestAnswer",
      "outputs": [
        {
          "internalType": "uint256",
          "name": "asnwer",
          "type": "uint256"
        }
      ],
      "stateMutability": "view",
      "type": "function"
    },
    {
      "inputs": [
        {
          "internalType": "address",
          "name": "base",
          "type": "address"
        },
        {
          "internalType": "address",
          "name": "quote",
          "type": "address"
        }
      ],
      "name": "getLatestRound",
      "outputs": [
        {
          "internalType": "uint256",
          "name": "roundId",
          "type": "uint256"
        }
      ],
      "stateMutability": "view",
      "type": "function"
    },
    {
      "inputs": [
        {
          "internalType": "address",
          "name": "base",
          "type": "address"
        },
        {
          "internalType": "address",
          "name": "quote",
          "type": "address"
        }
      ],
      "name": "getLatestRoundData",
      "outputs": [
        {
          "internalType": "uint80",
          "name": "roundId",
          "type": "uint80"
        },
        {
          "internalType": "int256",
          "name": "answer",
          "type": "int256"
        },
        {
          "internalType": "uint256",
          "name": "startedAt",
          "type": "uint256"
        },
        {
          "internalType": "uint256",
          "name": "updatedAt",
          "type": "uint256"
        },
        {
          "internalType": "uint80",
          "name": "answeredInRound",
          "type": "uint80"
        }
      ],
      "stateMutability": "view",
      "type": "function"
    },
    {
      "inputs": [
        {
          "internalType": "address",
          "name": "base",
          "type": "address"
        },
        {
          "internalType": "address",
          "name": "quote",
          "type": "address"
        },
        {
          "internalType": "uint80",
          "name": "roundId",
          "type": "uint80"
        }
      ],
      "name": "getRoundData",
      "outputs": [
        {
          "internalType": "uint80",
          "name": "roundId_",
          "type": "uint80"
        },
        {
          "internalType": "int256",
          "name": "answer",
          "type": "int256"
        },
        {
          "internalType": "uint256",
          "name": "startedAt",
          "type": "uint256"
        },
        {
          "internalType": "uint256",
          "name": "updatedAt",
          "type": "uint256"
        },
        {
          "internalType": "uint80",
          "name": "answeredInRound",
          "type": "uint80"
        }
      ],
      "stateMutability": "view",
      "type": "function"
    },
    {
      "inputs": [],
      "name": "registry",
      "outputs": [
        {
          "internalType": "contract IFeedRegistry",
          "name": "",
          "type": "address"
        }
      ],
      "stateMutability": "view",
      "type": "function"
    }
  ],
  "bytecode": "0x60a060405234801561001057600080fd5b5060405161097138038061097183398101604081905261002f91610040565b6001600160a01b0316608052610070565b60006020828403121561005257600080fd5b81516001600160a01b038116811461006957600080fd5b9392505050565b6080516108b66100bb6000396000818160dd015281816101e4015281816102830152818161031a0152818161035501528181610434015281816104cb015261058001526108b66000f3fe608060405234801561001057600080fd5b50600436106100885760003560e01c8063bb1470ca1161005b578063bb1470ca1461012a578063d2edb6dd14610174578063d9cc667d14610187578063fc58749e146101a757600080fd5b80630eba23e31461008d578063740fcd20146100b35780637b103999146100d8578063b85ac39d14610117575b600080fd5b6100a061009b366004610619565b6101ba565b6040519081526020015b60405180910390f35b6100c66100c1366004610619565b610259565b60405160ff90911681526020016100aa565b6100ff7f000000000000000000000000000000000000000000000000000000000000000081565b6040516001600160a01b0390911681526020016100aa565b6100a0610125366004610619565b6102f0565b61013d610138366004610619565b61034b565b6040805169ffffffffffffffffffff968716815260208101959095528401929092526060830152909116608082015260a0016100aa565b6100ff610182366004610619565b61040a565b61019a610195366004610619565b6104a1565b6040516100aa9190610676565b61013d6101b53660046106c1565b61053c565b60405163ec62f44b60e01b81526001600160a01b03838116600483015282811660248301526000917f00000000000000000000000000000000000000000000000000000000000000009091169063ec62f44b906044015b602060405180830381865afa15801561022e573d6000803e3d6000fd5b505050506040513d601f19601f82011682018060405250810190610252919061070c565b9392505050565b604051630b1c5a7560e31b81526001600160a01b03838116600483015282811660248301526000917f0000000000000000000000000000000000000000000000000000000000000000909116906358e2d3a890604401602060405180830381865afa1580156102cc573d6000803e3d6000fd5b505050506040513d601f19601f820116820180604052508101906102529190610725565b60405163d4c282a360e01b81526001600160a01b03838116600483015282811660248301526000917f00000000000000000000000000000000000000000000000000000000000000009091169063d4c282a390604401610211565b60008060008060007f00000000000000000000000000000000000000000000000000000000000000006001600160a01b031663bcfd032d88886040518363ffffffff1660e01b81526004016103b69291906001600160a01b0392831681529116602082015260400190565b60a060405180830381865afa1580156103d3573d6000803e3d6000fd5b505050506040513d601f19601f820116820180604052508101906103f79190610748565b939b929a50909850965090945092505050565b60405163d2edb6dd60e01b81526001600160a01b03838116600483015282811660248301526000917f00000000000000000000000000000000000000000000000000000000000000009091169063d2edb6dd90604401602060405180830381865afa15801561047d573d6000803e3d6000fd5b505050506040513d601f19601f8201168201806040525081019061025291906107a0565b60405163fa820de960e01b81526001600160a01b03838116600483015282811660248301526060917f00000000000000000000000000000000000000000000000000000000000000009091169063fa820de990604401600060405180830381865afa158015610514573d6000803e3d6000fd5b505050506040513d6000823e601f3d908101601f1916820160405261025291908101906107d3565b604051637e2c3a4f60e11b81526001600160a01b038481166004830152838116602483015269ffffffffffffffffffff8316604483015260009182918291829182917f00000000000000000000000000000000000000000000000000000000000000009091169063fc58749e9060640160a060405180830381865afa1580156105c9573d6000803e3d6000fd5b505050506040513d601f19601f820116820180604052508101906105ed9190610748565b939c929b5090995097509095509350505050565b6001600160a01b038116811461061657600080fd5b50565b6000806040838503121561062c57600080fd5b823561063781610601565b9150602083013561064781610601565b809150509250929050565b60005b8381101561066d578181015183820152602001610655565b50506000910152565b6020815260008251806020840152610695816040850160208701610652565b601f01601f19169190910160400192915050565b69ffffffffffffffffffff8116811461061657600080fd5b6000806000606084860312156106d657600080fd5b83356106e181610601565b925060208401356106f181610601565b91506040840135610701816106a9565b809150509250925092565b60006020828403121561071e57600080fd5b5051919050565b60006020828403121561073757600080fd5b815160ff8116811461025257600080fd5b600080600080600060a0868803121561076057600080fd5b855161076b816106a9565b809550506020860151935060408601519250606086015191506080860151610792816106a9565b809150509295509295909350565b6000602082840312156107b257600080fd5b815161025281610601565b634e487b7160e01b600052604160045260246000fd5b6000602082840312156107e557600080fd5b815167ffffffffffffffff808211156107fd57600080fd5b818401915084601f83011261081157600080fd5b815181811115610823576108236107bd565b604051601f8201601f19908116603f0116810190838211818310171561084b5761084b6107bd565b8160405282815287602084870101111561086457600080fd5b610875836020830160208801610652565b97965050505050505056fea26469706673582212209315e287de3030142cd70dd927e4b00cc81a9eb5acef202177363d07e8d582b464736f6c63430008180033",
  "linkReferences": {},
  "deployedLinkReferences": {}
}