{
  "_format": "hh-sol-artifact-1",
  "contractName": "DataFeedGenericV2Consumer",
  "sourceName": "contracts/test/consumers/DataFeedGenericV2Consumer.sol",
  "abi": [
    {
      "inputs": [
        {
          "internalType": "address",
          "name": "_dataFeedStore",
          "type": "address"
        }
      ],
      "stateMutability": "nonpayable",
      "type": "constructor"
    },
    {
      "inputs": [],
      "name": "GetFeedByIdFailed",
      "type": "error"
    },
    {
      "inputs": [],
      "name": "dataFeedStore",
      "outputs": [
        {
          "internalType": "address",
          "name": "",
          "type": "address"
        }
      ],
      "stateMutability": "view",
      "type": "function"
    },
    {
      "inputs": [
        {
          "internalType": "uint32",
          "name": "key",
          "type": "uint32"
        }
      ],
      "name": "getFeedById",
      "outputs": [
        {
          "internalType": "bytes32",
          "name": "",
          "type": "bytes32"
        }
      ],
      "stateMutability": "view",
      "type": "function"
    },
    {
      "inputs": [
        {
          "internalType": "uint32[]",
          "name": "keys",
          "type": "uint32[]"
        }
      ],
      "name": "setMultipleFetchedFeedsById",
      "outputs": [],
      "stateMutability": "nonpayable",
      "type": "function"
    }
  ],
  "bytecode": "0x60a060405234801561001057600080fd5b5060405161041e38038061041e83398101604081905261002f91610040565b6001600160a01b0316608052610070565b60006020828403121561005257600080fd5b81516001600160a01b038116811461006957600080fd5b9392505050565b60805161038d61009160003960008181606001526101a5015261038d6000f3fe608060405234801561001057600080fd5b50600436106100415760003560e01c806315d27322146100465780638b90201d1461005b578063f67c36871461009f575b600080fd5b610059610054366004610257565b6100d3565b005b6100827f000000000000000000000000000000000000000000000000000000000000000081565b6040516001600160a01b0390911681526020015b60405180910390f35b6100c56100ad3660046102cc565b63ffffffff1660009081526020819052604090205490565b604051908152602001610096565b60005b818110156101565761010d8383838181106100f3576100f36102f9565b905060200201602081019061010891906102cc565b61015b565b600080858585818110610122576101226102f9565b905060200201602081019061013791906102cc565b63ffffffff1681526020810191909152604001600020556001016100d6565b505050565b6040805163ffffffff831660248083019190915282518083039091018152604490910182526020810180516001600160e01b031663072a7c9960e11b1790529051600091829182917f00000000000000000000000000000000000000000000000000000000000000006001600160a01b0316916101d8919061030f565b600060405180830381855afa9150503d8060008114610213576040519150601f19603f3d011682016040523d82523d6000602084013e610218565b606091505b50915091508161023b576040516346b357d360e01b815260040160405180910390fd5b8080602001905181019061024f919061033e565b949350505050565b6000806020838503121561026a57600080fd5b823567ffffffffffffffff8082111561028257600080fd5b818501915085601f83011261029657600080fd5b8135818111156102a557600080fd5b8660208260051b85010111156102ba57600080fd5b60209290920196919550909350505050565b6000602082840312156102de57600080fd5b813563ffffffff811681146102f257600080fd5b9392505050565b634e487b7160e01b600052603260045260246000fd5b6000825160005b818110156103305760208186018101518583015201610316565b506000920191825250919050565b60006020828403121561035057600080fd5b505191905056fea26469706673582212203decb54ef54e294690152bae4cc161e002d2ce2ded76fba70f14aef6ecf448fa64736f6c63430008180033",
  "linkReferences": {},
  "deployedLinkReferences": {}
}