{
  "_format": "hh-sol-artifact-1",
  "contractName": "HistoricDataFeedGenericConsumer",
  "sourceName": "contracts/test/consumers/historic/HistoricDataFeedGenericConsumer.sol",
  "abi": [
    {
      "inputs": [
        {
          "internalType": "address",
          "name": "_dataFeedStore",
          "type": "address"
        }
      ],
      "stateMutability": "nonpayable",
      "type": "constructor"
    },
    {
      "inputs": [],
      "name": "GetFeedByIdFailed",
      "type": "error"
    },
    {
      "inputs": [
        {
          "internalType": "uint32",
          "name": "",
          "type": "uint32"
        }
      ],
      "name": "counters",
      "outputs": [
        {
          "internalType": "uint32",
          "name": "",
          "type": "uint32"
        }
      ],
      "stateMutability": "view",
      "type": "function"
    },
    {
      "inputs": [],
      "name": "dataFeedStore",
      "outputs": [
        {
          "internalType": "address",
          "name": "",
          "type": "address"
        }
      ],
      "stateMutability": "view",
      "type": "function"
    },
    {
      "inputs": [
        {
          "internalType": "uint32",
          "name": "key",
          "type": "uint32"
        },
        {
          "internalType": "uint32",
          "name": "counter",
          "type": "uint32"
        }
      ],
      "name": "getFeedAtCounter",
      "outputs": [
        {
          "components": [
            {
              "internalType": "bytes24",
              "name": "value",
              "type": "bytes24"
            },
            {
              "internalType": "uint64",
              "name": "timestamp",
              "type": "uint64"
            }
          ],
          "internalType": "struct IHistoricDataFeed.Transmission",
          "name": "",
          "type": "tuple"
        }
      ],
      "stateMutability": "view",
      "type": "function"
    },
    {
      "inputs": [
        {
          "internalType": "uint32",
          "name": "key",
          "type": "uint32"
        }
      ],
      "name": "getFeedById",
      "outputs": [
        {
          "components": [
            {
              "internalType": "bytes24",
              "name": "value",
              "type": "bytes24"
            },
            {
              "internalType": "uint64",
              "name": "timestamp",
              "type": "uint64"
            }
          ],
          "internalType": "struct IHistoricDataFeed.Transmission",
          "name": "",
          "type": "tuple"
        }
      ],
      "stateMutability": "view",
      "type": "function"
    },
    {
      "inputs": [
        {
          "internalType": "uint32",
          "name": "",
          "type": "uint32"
        }
      ],
      "name": "latestDataFeeds",
      "outputs": [
        {
          "internalType": "bytes24",
          "name": "value",
          "type": "bytes24"
        },
        {
          "internalType": "uint64",
          "name": "timestamp",
          "type": "uint64"
        }
      ],
      "stateMutability": "view",
      "type": "function"
    },
    {
      "inputs": [
        {
          "internalType": "uint32[]",
          "name": "keys",
          "type": "uint32[]"
        },
        {
          "internalType": "uint32[]",
          "name": "counters_",
          "type": "uint32[]"
        }
      ],
      "name": "setMultipleFeedsAtCounter",
      "outputs": [],
      "stateMutability": "nonpayable",
      "type": "function"
    },
    {
      "inputs": [
        {
          "internalType": "uint32[]",
          "name": "keys",
          "type": "uint32[]"
        }
      ],
      "name": "setMultipleFetchedFeedsById",
      "outputs": [],
      "stateMutability": "nonpayable",
      "type": "function"
    },
    {
      "inputs": [
        {
          "internalType": "uint32[]",
          "name": "keys",
          "type": "uint32[]"
        }
      ],
      "name": "setMultipleLatestFeedsById",
      "outputs": [],
      "stateMutability": "nonpayable",
      "type": "function"
    }
  ],
  "bytecode": "0x60a060405234801561001057600080fd5b50604051610a83380380610a8383398101604081905261002f91610040565b6001600160a01b0316608052610070565b60006020828403121561005257600080fd5b81516001600160a01b038116811461006957600080fd5b9392505050565b6080516109e36100a0600039600081816101ec015281816105d101528181610679015261072201526109e36000f3fe608060405234801561001057600080fd5b50600436106100885760003560e01c80638b90201d1161005b5780638b90201d146101e7578063c8aa30d414610226578063d363e9b314610239578063f67c36871461024c57600080fd5b806315d273221461008d5780635f8b26f4146100a257806366a0a9e11461014c578063895a26d414610187575b600080fd5b6100a061009b3660046107e6565b6102cf565b005b6101186100b0366004610840565b6040805180820182526000808252602091820181905263ffffffff94851681528082528281209390941684529182529182902082518084018452905467ffffffffffffffff199381901b939093168152600160c01b9092046001600160401b03169082015290565b60408051825167ffffffffffffffff191681526020928301516001600160401b031692810192909252015b60405180910390f35b61017261015a366004610873565b60016020526000908152604090205463ffffffff1681565b60405163ffffffff9091168152602001610143565b6101be610195366004610873565b60026020526000908152604090819020549081901b90600160c01b90046001600160401b031682565b6040805167ffffffffffffffff1990931683526001600160401b03909116602083015201610143565b61020e7f000000000000000000000000000000000000000000000000000000000000000081565b6040516001600160a01b039091168152602001610143565b6100a061023436600461088e565b610413565b6100a06102473660046107e6565b610528565b61011861025a366004610873565b60408051808201909152600080825260208201525063ffffffff908116600090815260208181526040808320600183528184205490941683529281529082902082518084018452905467ffffffffffffffff199381901b939093168152600160c01b9092046001600160401b03169082015290565b60005b8181101561040e57600061030b8484848181106102f1576102f16108f9565b90506020020160208101906103069190610873565b6105b3565b905061033c848484818110610322576103226108f9565b90506020020160208101906103379190610873565b61064a565b600080868686818110610351576103516108f9565b90506020020160208101906103669190610873565b63ffffffff9081168252602080830193909352604091820160009081209186168152908352818120845194909301516001600160401b0316600160c01b029390911c92909217905581906001908686868181106103c5576103c56108f9565b90506020020160208101906103da9190610873565b63ffffffff90811682526020820192909252604001600020805463ffffffff191692909116919091179055506001016102d2565b505050565b60005b8381101561052157610474858583818110610433576104336108f9565b90506020020160208101906104489190610873565b84848481811061045a5761045a6108f9565b905060200201602081019061046f9190610873565b6106eb565b600080878785818110610489576104896108f9565b905060200201602081019061049e9190610873565b63ffffffff1663ffffffff16815260200190815260200160002060008585858181106104cc576104cc6108f9565b90506020020160208101906104e19190610873565b63ffffffff1681526020808201929092526040908101600020835193909201516001600160401b0316600160c01b0292901c919091179055600101610416565b5050505050565b60005b8181101561040e57610548838383818110610322576103226108f9565b6002600085858581811061055e5761055e6108f9565b90506020020160208101906105739190610873565b63ffffffff1681526020808201929092526040908101600020835193909201516001600160401b0316600160c01b0292901c91909117905560010161052b565b604051632e8d670b60e21b815263ffffffff821660048201526000907f00000000000000000000000000000000000000000000000000000000000000006001600160a01b03169063ba359c2c90602401602060405180830381865afa158015610620573d6000803e3d6000fd5b505050506040513d601f19601f82011682018060405250810190610644919061090f565b92915050565b6040805180820190915260008082526020820152604051631c4e987b60e01b815263ffffffff831660048201527f00000000000000000000000000000000000000000000000000000000000000006001600160a01b031690631c4e987b906024016040805180830381865afa1580156106c7573d6000803e3d6000fd5b505050506040513d601f19601f820116820180604052508101906106449190610928565b6040805180820190915260008082526020820152604051639acfb65760e01b815263ffffffff8085166004830152831660248201527f00000000000000000000000000000000000000000000000000000000000000006001600160a01b031690639acfb657906044016040805180830381865afa158015610770573d6000803e3d6000fd5b505050506040513d601f19601f820116820180604052508101906107949190610928565b9392505050565b60008083601f8401126107ad57600080fd5b5081356001600160401b038111156107c457600080fd5b6020830191508360208260051b85010111156107df57600080fd5b9250929050565b600080602083850312156107f957600080fd5b82356001600160401b0381111561080f57600080fd5b61081b8582860161079b565b90969095509350505050565b803563ffffffff8116811461083b57600080fd5b919050565b6000806040838503121561085357600080fd5b61085c83610827565b915061086a60208401610827565b90509250929050565b60006020828403121561088557600080fd5b61079482610827565b600080600080604085870312156108a457600080fd5b84356001600160401b03808211156108bb57600080fd5b6108c78883890161079b565b909650945060208701359150808211156108e057600080fd5b506108ed8782880161079b565b95989497509550505050565b634e487b7160e01b600052603260045260246000fd5b60006020828403121561092157600080fd5b5051919050565b60006040828403121561093a57600080fd5b604051604081016001600160401b03828210818311171561096b57634e487b7160e01b600052604160045260246000fd5b81604052845191506001600160401b03198216821461098957600080fd5b90825260208401519080821682146109a057600080fd5b506020820152939250505056fea2646970667358221220504696f274dd45d6c361770aa5afee1a9a0ffe2283db62cea1752834a29205b264736f6c63430008180033",
  "linkReferences": {},
  "deployedLinkReferences": {}
}