{
  "_format": "hh-sol-artifact-1",
  "contractName": "Registry",
  "sourceName": "contracts/test/chainlink-oracles/Registry.sol",
  "abi": [
    {
      "inputs": [
        {
          "internalType": "address",
          "name": "_registry",
          "type": "address"
        }
      ],
      "stateMutability": "nonpayable",
      "type": "constructor"
    },
    {
      "inputs": [],
      "name": "decimals",
      "outputs": [
        {
          "internalType": "uint8",
          "name": "",
          "type": "uint8"
        }
      ],
      "stateMutability": "view",
      "type": "function"
    },
    {
      "inputs": [],
      "name": "description",
      "outputs": [
        {
          "internalType": "string",
          "name": "",
          "type": "string"
        }
      ],
      "stateMutability": "view",
      "type": "function"
    },
    {
      "inputs": [],
      "name": "feed",
      "outputs": [
        {
          "internalType": "contract IChainlinkAggregator",
          "name": "",
          "type": "address"
        }
      ],
      "stateMutability": "view",
      "type": "function"
    },
    {
      "inputs": [],
      "name": "lastUpdate",
      "outputs": [
        {
          "internalType": "uint256",
          "name": "",
          "type": "uint256"
        }
      ],
      "stateMutability": "view",
      "type": "function"
    },
    {
      "inputs": [],
      "name": "price",
      "outputs": [
        {
          "internalType": "uint256",
          "name": "",
          "type": "uint256"
        }
      ],
      "stateMutability": "view",
      "type": "function"
    },
    {
      "inputs": [],
      "name": "registry",
      "outputs": [
        {
          "internalType": "contract IFeedRegistry",
          "name": "",
          "type": "address"
        }
      ],
      "stateMutability": "view",
      "type": "function"
    },
    {
      "inputs": [],
      "name": "roundId",
      "outputs": [
        {
          "internalType": "uint80",
          "name": "",
          "type": "uint80"
        }
      ],
      "stateMutability": "view",
      "type": "function"
    },
    {
      "inputs": [
        {
          "internalType": "address",
          "name": "base",
          "type": "address"
        },
        {
          "internalType": "address",
          "name": "quote",
          "type": "address"
        }
      ],
      "name": "setDecimals",
      "outputs": [],
      "stateMutability": "nonpayable",
      "type": "function"
    },
    {
      "inputs": [
        {
          "internalType": "address",
          "name": "base",
          "type": "address"
        },
        {
          "internalType": "address",
          "name": "quote",
          "type": "address"
        }
      ],
      "name": "setDescription",
      "outputs": [],
      "stateMutability": "nonpayable",
      "type": "function"
    },
    {
      "inputs": [
        {
          "internalType": "address",
          "name": "base",
          "type": "address"
        },
        {
          "internalType": "address",
          "name": "quote",
          "type": "address"
        }
      ],
      "name": "setFeed",
      "outputs": [],
      "stateMutability": "nonpayable",
      "type": "function"
    },
    {
      "inputs": [
        {
          "internalType": "address",
          "name": "base",
          "type": "address"
        },
        {
          "internalType": "address",
          "name": "quote",
          "type": "address"
        }
      ],
      "name": "setLatestAnswer",
      "outputs": [],
      "stateMutability": "nonpayable",
      "type": "function"
    },
    {
      "inputs": [
        {
          "internalType": "address",
          "name": "base",
          "type": "address"
        },
        {
          "internalType": "address",
          "name": "quote",
          "type": "address"
        }
      ],
      "name": "setLatestRoundData",
      "outputs": [],
      "stateMutability": "nonpayable",
      "type": "function"
    },
    {
      "inputs": [
        {
          "internalType": "address",
          "name": "base",
          "type": "address"
        },
        {
          "internalType": "address",
          "name": "quote",
          "type": "address"
        }
      ],
      "name": "setLatestRoundId",
      "outputs": [],
      "stateMutability": "nonpayable",
      "type": "function"
    },
    {
      "inputs": [
        {
          "internalType": "address",
          "name": "base",
          "type": "address"
        },
        {
          "internalType": "address",
          "name": "quote",
          "type": "address"
        },
        {
          "internalType": "uint80",
          "name": "_roundId",
          "type": "uint80"
        }
      ],
      "name": "setRoundData",
      "outputs": [],
      "stateMutability": "nonpayable",
      "type": "function"
    }
  ],
  "bytecode": "0x60a060405234801561001057600080fd5b50604051610cca380380610cca83398101604081905261002f91610040565b6001600160a01b0316608052610070565b60006020828403121561005257600080fd5b81516001600160a01b038116811461006957600080fd5b9392505050565b608051610c0e6100bc600039600081816101ad0152818161028101528181610329015281816103df0152818161051a015281816105f3015281816106c601526107820152610c0e6000f3fe608060405234801561001057600080fd5b50600436106100ea5760003560e01c80637b1039991161008c578063a035b1fe11610066578063a035b1fe14610214578063a09745a91461022b578063a31a7afd1461023e578063c04637111461025157600080fd5b80637b103999146101a85780638cd221c9146101cf57806390faf31b1461020157600080fd5b806340b1eb10116100c857806340b1eb101461015a5780635cde5d991461016d5780637284e4161461018057806378201f7c1461019557600080fd5b8063313ce567146100ef5780633513eb871461011a57806337a7b7d81461012f575b600080fd5b60035461010390600160f01b900460ff1681565b60405160ff90911681526020015b60405180910390f35b61012d610128366004610823565b61025a565b005b600354610142906001600160a01b031681565b6040516001600160a01b039091168152602001610111565b61012d610168366004610823565b610302565b61012d61017b366004610823565b6103b8565b610188610451565b6040516101119190610880565b61012d6101a33660046108c8565b6104df565b6101427f000000000000000000000000000000000000000000000000000000000000000081565b6003546101e990600160a01b90046001600160501b031681565b6040516001600160501b039091168152602001610111565b61012d61020f366004610823565b6105c5565b61021d60015481565b604051908152602001610111565b61012d610239366004610823565b61069f565b61012d61024c366004610823565b61075b565b61021d60025481565b60405163fa820de960e01b81526001600160a01b03838116600483015282811660248301527f0000000000000000000000000000000000000000000000000000000000000000169063fa820de990604401600060405180830381865afa1580156102c8573d6000803e3d6000fd5b505050506040513d6000823e601f3d908101601f191682016040526102f09190810190610929565b6000906102fd9082610a60565b505050565b60405163d2edb6dd60e01b81526001600160a01b03838116600483015282811660248301527f0000000000000000000000000000000000000000000000000000000000000000169063d2edb6dd90604401602060405180830381865afa158015610370573d6000803e3d6000fd5b505050506040513d601f19601f820116820180604052508101906103949190610b20565b600380546001600160a01b0319166001600160a01b03929092169190911790555050565b60405163d4c282a360e01b81526001600160a01b03838116600483015282811660248301527f0000000000000000000000000000000000000000000000000000000000000000169063d4c282a390604401602060405180830381865afa158015610426573d6000803e3d6000fd5b505050506040513d601f19601f8201168201806040525081019061044a9190610b44565b6001555050565b6000805461045e906109d6565b80601f016020809104026020016040519081016040528092919081815260200182805461048a906109d6565b80156104d75780601f106104ac576101008083540402835291602001916104d7565b820191906000526020600020905b8154815290600101906020018083116104ba57829003601f168201915b505050505081565b604051637e2c3a4f60e11b81526001600160a01b03848116600483015283811660248301526001600160501b038316604483015260009182917f0000000000000000000000000000000000000000000000000000000000000000169063fc58749e9060640160a060405180830381865afa158015610561573d6000803e3d6000fd5b505050506040513d601f19601f820116820180604052508101906105859190610b5d565b50506001919091556002555050600380546001600160501b03909316600160a01b0269ffffffffffffffffffff60a01b1990931692909217909155505050565b60405163bcfd032d60e01b81526001600160a01b0383811660048301528281166024830152600091829182917f00000000000000000000000000000000000000000000000000000000000000009091169063bcfd032d9060440160a060405180830381865afa15801561063c573d6000803e3d6000fd5b505050506040513d601f19601f820116820180604052508101906106609190610b5d565b5050600191909155600255600380546001600160501b03909216600160a01b0269ffffffffffffffffffff60a01b199092169190911790555050505050565b60405163ec62f44b60e01b81526001600160a01b03838116600483015282811660248301527f0000000000000000000000000000000000000000000000000000000000000000169063ec62f44b90604401602060405180830381865afa15801561070d573d6000803e3d6000fd5b505050506040513d601f19601f820116820180604052508101906107319190610b44565b600360146101000a8154816001600160501b0302191690836001600160501b031602179055505050565b604051630b1c5a7560e31b81526001600160a01b03838116600483015282811660248301527f000000000000000000000000000000000000000000000000000000000000000016906358e2d3a890604401602060405180830381865afa1580156107c9573d6000803e3d6000fd5b505050506040513d601f19601f820116820180604052508101906107ed9190610bb5565b6003601e6101000a81548160ff021916908360ff1602179055505050565b6001600160a01b038116811461082057600080fd5b50565b6000806040838503121561083657600080fd5b82356108418161080b565b915060208301356108518161080b565b809150509250929050565b60005b8381101561087757818101518382015260200161085f565b50506000910152565b602081526000825180602084015261089f81604085016020870161085c565b601f01601f19169190910160400192915050565b6001600160501b038116811461082057600080fd5b6000806000606084860312156108dd57600080fd5b83356108e88161080b565b925060208401356108f88161080b565b91506040840135610908816108b3565b809150509250925092565b634e487b7160e01b600052604160045260246000fd5b60006020828403121561093b57600080fd5b815167ffffffffffffffff8082111561095357600080fd5b818401915084601f83011261096757600080fd5b81518181111561097957610979610913565b604051601f8201601f19908116603f011681019083821181831017156109a1576109a1610913565b816040528281528760208487010111156109ba57600080fd5b6109cb83602083016020880161085c565b979650505050505050565b600181811c908216806109ea57607f821691505b602082108103610a0a57634e487b7160e01b600052602260045260246000fd5b50919050565b601f8211156102fd576000816000526020600020601f850160051c81016020861015610a395750805b601f850160051c820191505b81811015610a5857828155600101610a45565b505050505050565b815167ffffffffffffffff811115610a7a57610a7a610913565b610a8e81610a8884546109d6565b84610a10565b602080601f831160018114610ac35760008415610aab5750858301515b600019600386901b1c1916600185901b178555610a58565b600085815260208120601f198616915b82811015610af257888601518255948401946001909101908401610ad3565b5085821015610b105787850151600019600388901b60f8161c191681555b5050505050600190811b01905550565b600060208284031215610b3257600080fd5b8151610b3d8161080b565b9392505050565b600060208284031215610b5657600080fd5b5051919050565b600080600080600060a08688031215610b7557600080fd5b8551610b80816108b3565b809550506020860151935060408601519250606086015191506080860151610ba7816108b3565b809150509295509295909350565b600060208284031215610bc757600080fd5b815160ff81168114610b3d57600080fdfea26469706673582212202a05261d9e6696f9e245a646e90ce9edb69299f14788b0ec1b3a223a73cd77b164736f6c63430008180033",
  "linkReferences": {},
  "deployedLinkReferences": {}
}