{
  "_format": "hh-sol-artifact-1",
  "contractName": "Oracle",
  "sourceName": "contracts/test/chainlink-oracles/Oracle.sol",
  "abi": [
    {
      "inputs": [
        {
          "internalType": "address",
          "name": "_dataFeedStore",
          "type": "address"
        }
      ],
      "stateMutability": "nonpayable",
      "type": "constructor"
    },
    {
      "inputs": [],
      "name": "dataFeedStore",
      "outputs": [
        {
          "internalType": "contract IChainlinkAggregator",
          "name": "",
          "type": "address"
        }
      ],
      "stateMutability": "view",
      "type": "function"
    },
    {
      "inputs": [],
      "name": "decimals",
      "outputs": [
        {
          "internalType": "uint8",
          "name": "",
          "type": "uint8"
        }
      ],
      "stateMutability": "view",
      "type": "function"
    },
    {
      "inputs": [],
      "name": "description",
      "outputs": [
        {
          "internalType": "string",
          "name": "",
          "type": "string"
        }
      ],
      "stateMutability": "view",
      "type": "function"
    },
    {
      "inputs": [],
      "name": "lastUpdate",
      "outputs": [
        {
          "internalType": "uint256",
          "name": "",
          "type": "uint256"
        }
      ],
      "stateMutability": "view",
      "type": "function"
    },
    {
      "inputs": [],
      "name": "price",
      "outputs": [
        {
          "internalType": "uint256",
          "name": "",
          "type": "uint256"
        }
      ],
      "stateMutability": "view",
      "type": "function"
    },
    {
      "inputs": [],
      "name": "roundId",
      "outputs": [
        {
          "internalType": "uint80",
          "name": "",
          "type": "uint80"
        }
      ],
      "stateMutability": "view",
      "type": "function"
    },
    {
      "inputs": [],
      "name": "setDecimals",
      "outputs": [],
      "stateMutability": "nonpayable",
      "type": "function"
    },
    {
      "inputs": [],
      "name": "setDescription",
      "outputs": [],
      "stateMutability": "nonpayable",
      "type": "function"
    },
    {
      "inputs": [],
      "name": "setLatestAnswer",
      "outputs": [],
      "stateMutability": "nonpayable",
      "type": "function"
    },
    {
      "inputs": [],
      "name": "setLatestRoundData",
      "outputs": [],
      "stateMutability": "nonpayable",
      "type": "function"
    },
    {
      "inputs": [],
      "name": "setLatestRoundId",
      "outputs": [],
      "stateMutability": "nonpayable",
      "type": "function"
    },
    {
      "inputs": [
        {
          "internalType": "uint80",
          "name": "_roundId",
          "type": "uint80"
        }
      ],
      "name": "setRoundData",
      "outputs": [],
      "stateMutability": "nonpayable",
      "type": "function"
    }
  ],
  "bytecode": "0x60a060405234801561001057600080fd5b50604051610a51380380610a5183398101604081905261002f91610040565b6001600160a01b0316608052610070565b60006020828403121561005257600080fd5b81516001600160a01b038116811461006957600080fd5b9392505050565b60805161099c6100b560003960008181610118015281816101c20152818161025d015281816103120152818161046701528181610508015261058f015261099c6000f3fe608060405234801561001057600080fd5b50600436106100b45760003560e01c80638cd221c9116100715780638cd221c914610152578063a035b1fe1461017d578063c046371114610194578063d57012bf1461019d578063d7962d41146101b0578063e7a97792146101b857600080fd5b80631141cc6f146100b95780632a15cdc8146100c3578063313ce567146100cb57806347b83d7d146100f65780637284e416146100fe5780638b90201d14610113575b600080fd5b6100c16101c0565b005b6100c1610256565b6003546100df90600160501b900460ff1681565b60405160ff90911681526020015b60405180910390f35b6100c1610310565b6101066103ae565b6040516100ed9190610658565b61013a7f000000000000000000000000000000000000000000000000000000000000000081565b6040516001600160a01b0390911681526020016100ed565b600354610165906001600160501b031681565b6040516001600160501b0390911681526020016100ed565b61018660015481565b6040519081526020016100ed565b61018660025481565b6100c16101ab3660046106a0565b61043c565b6100c1610506565b6100c161058d565b7f00000000000000000000000000000000000000000000000000000000000000006001600160a01b0316637284e4166040518163ffffffff1660e01b8152600401600060405180830381865afa15801561021e573d6000803e3d6000fd5b505050506040513d6000823e601f3d908101601f1916820160405261024691908101906106da565b6000906102539082610812565b50565b60008060007f00000000000000000000000000000000000000000000000000000000000000006001600160a01b031663feaf968c6040518163ffffffff1660e01b815260040160a060405180830381865afa1580156102b9573d6000803e3d6000fd5b505050506040513d601f19601f820116820180604052508101906102dd91906108d2565b50506001919091556002556003805469ffffffffffffffffffff19166001600160501b0392909216919091179055505050565b7f00000000000000000000000000000000000000000000000000000000000000006001600160a01b031663313ce5676040518163ffffffff1660e01b8152600401602060405180830381865afa15801561036e573d6000803e3d6000fd5b505050506040513d601f19601f82011682018060405250810190610392919061092a565b6003600a6101000a81548160ff021916908360ff160217905550565b600080546103bb90610787565b80601f01602080910402602001604051908101604052809291908181526020018280546103e790610787565b80156104345780601f1061040957610100808354040283529160200191610434565b820191906000526020600020905b81548152906001019060200180831161041757829003601f168201915b505050505081565b604051639a6fc8f560e01b81526001600160501b038216600482015260009081906001600160a01b037f00000000000000000000000000000000000000000000000000000000000000001690639a6fc8f59060240160a060405180830381865afa1580156104ae573d6000803e3d6000fd5b505050506040513d601f19601f820116820180604052508101906104d291906108d2565b505060019190915560025550506003805469ffffffffffffffffffff19166001600160501b03939093169290921790915550565b7f00000000000000000000000000000000000000000000000000000000000000006001600160a01b03166350d25bcd6040518163ffffffff1660e01b8152600401602060405180830381865afa158015610564573d6000803e3d6000fd5b505050506040513d601f19601f82011682018060405250810190610588919061094d565b600155565b7f00000000000000000000000000000000000000000000000000000000000000006001600160a01b031663668a0f026040518163ffffffff1660e01b8152600401602060405180830381865afa1580156105eb573d6000803e3d6000fd5b505050506040513d601f19601f8201168201806040525081019061060f919061094d565b6003805469ffffffffffffffffffff19166001600160501b0392909216919091179055565b60005b8381101561064f578181015183820152602001610637565b50506000910152565b6020815260008251806020840152610677816040850160208701610634565b601f01601f19169190910160400192915050565b6001600160501b038116811461025357600080fd5b6000602082840312156106b257600080fd5b81356106bd8161068b565b9392505050565b634e487b7160e01b600052604160045260246000fd5b6000602082840312156106ec57600080fd5b815167ffffffffffffffff8082111561070457600080fd5b818401915084601f83011261071857600080fd5b81518181111561072a5761072a6106c4565b604051601f8201601f19908116603f01168101908382118183101715610752576107526106c4565b8160405282815287602084870101111561076b57600080fd5b61077c836020830160208801610634565b979650505050505050565b600181811c9082168061079b57607f821691505b6020821081036107bb57634e487b7160e01b600052602260045260246000fd5b50919050565b601f82111561080d576000816000526020600020601f850160051c810160208610156107ea5750805b601f850160051c820191505b81811015610809578281556001016107f6565b5050505b505050565b815167ffffffffffffffff81111561082c5761082c6106c4565b6108408161083a8454610787565b846107c1565b602080601f831160018114610875576000841561085d5750858301515b600019600386901b1c1916600185901b178555610809565b600085815260208120601f198616915b828110156108a457888601518255948401946001909101908401610885565b50858210156108c25787850151600019600388901b60f8161c191681555b5050505050600190811b01905550565b600080600080600060a086880312156108ea57600080fd5b85516108f58161068b565b80955050602086015193506040860151925060608601519150608086015161091c8161068b565b809150509295509295909350565b60006020828403121561093c57600080fd5b815160ff811681146106bd57600080fd5b60006020828403121561095f57600080fd5b505191905056fea264697066735822122087e7d01a3281a2e71077f3294a4a83a55d09c17f5a0154608299e292a6293d9164736f6c63430008180033",
  "linkReferences": {},
  "deployedLinkReferences": {}
}