{
  "_format": "hh-sol-artifact-1",
  "contractName": "HistoricDataFeedStoreGenericV1",
  "sourceName": "contracts/test/HistoricDataFeedStoreGenericV1.sol",
  "abi": [
    {
      "inputs": [],
      "stateMutability": "nonpayable",
      "type": "constructor"
    },
    {
      "inputs": [],
      "name": "NotAuthorized",
      "type": "error"
    },
    {
      "inputs": [],
      "name": "WrongInputLength",
      "type": "error"
    },
    {
      "inputs": [
        {
          "internalType": "uint256",
          "name": "key",
          "type": "uint256"
        }
      ],
      "name": "getDataFeed",
      "outputs": [
        {
          "components": [
            {
              "internalType": "bytes24",
              "name": "value",
              "type": "bytes24"
            },
            {
              "internalType": "uint64",
              "name": "timestamp",
              "type": "uint64"
            }
          ],
          "internalType": "struct IHistoricDataFeed.Transmission",
          "name": "",
          "type": "tuple"
        }
      ],
      "stateMutability": "view",
      "type": "function"
    },
    {
      "inputs": [
        {
          "internalType": "uint256",
          "name": "key",
          "type": "uint256"
        },
        {
          "internalType": "uint256",
          "name": "counter",
          "type": "uint256"
        }
      ],
      "name": "getFeedAtCounter",
      "outputs": [
        {
          "components": [
            {
              "internalType": "bytes24",
              "name": "value",
              "type": "bytes24"
            },
            {
              "internalType": "uint64",
              "name": "timestamp",
              "type": "uint64"
            }
          ],
          "internalType": "struct IHistoricDataFeed.Transmission",
          "name": "",
          "type": "tuple"
        }
      ],
      "stateMutability": "view",
      "type": "function"
    },
    {
      "inputs": [
        {
          "internalType": "uint256",
          "name": "key",
          "type": "uint256"
        }
      ],
      "name": "getLatestCounter",
      "outputs": [
        {
          "internalType": "uint256",
          "name": "",
          "type": "uint256"
        }
      ],
      "stateMutability": "view",
      "type": "function"
    },
    {
      "inputs": [
        {
          "internalType": "uint256[]",
          "name": "keys",
          "type": "uint256[]"
        },
        {
          "internalType": "bytes32[]",
          "name": "values",
          "type": "bytes32[]"
        }
      ],
      "name": "setFeeds",
      "outputs": [],
      "stateMutability": "nonpayable",
      "type": "function"
    }
  ],
  "bytecode": "0x60a060405234801561001057600080fd5b50336080526080516104e461003060003960006101c001526104e46000f3fe608060405234801561001057600080fd5b506004361061004c5760003560e01c80631c4e987b146100515780639acfb657146100fe578063ba359c2c14610111578063da5334531461013f575b600080fd5b6100c961005f366004610362565b6040805180820190915260008082526020820152506000908152602081815260408083206001835281842054845282529182902082518084018452905467ffffffffffffffff199381901b939093168152600160c01b90920467ffffffffffffffff169082015290565b60408051825167ffffffffffffffff1916815260209283015167ffffffffffffffff1692810192909252015b60405180910390f35b6100c961010c36600461037b565b610154565b61013161011f366004610362565b60009081526001602052604090205490565b6040519081526020016100f5565b61015261014d3660046103e9565b6101b5565b005b6040805180820182526000808252602091820181905284815280825282812084825282528290208251808401845290549283901b67ffffffffffffffff1916815267ffffffffffffffff600160c01b90930492909216908201525b92915050565b336001600160a01b037f000000000000000000000000000000000000000000000000000000000000000016146101fe5760405163ea8e4eb560e01b815260040160405180910390fd5b82811461021e57604051631201d2c760e31b815260040160405180910390fd5b60005b8381101561035b5760006001600087878581811061024157610241610455565b90506020020135815260200190815260200160002054905061ffff801681600161026b919061046b565b610275919061048c565b905080600003610283575060015b60405180604001604052808585858181106102a0576102a0610455565b9050602002013567ffffffffffffffff191681526020014267ffffffffffffffff168152506000808888868181106102da576102da610455565b60209081029290920135835250818101929092526040908101600090812085825283528181208451949093015167ffffffffffffffff16600160c01b029390911c929092179055819060019088888681811061033857610338610455565b602090810292909201358352508101919091526040016000205550600101610221565b5050505050565b60006020828403121561037457600080fd5b5035919050565b6000806040838503121561038e57600080fd5b50508035926020909101359150565b60008083601f8401126103af57600080fd5b50813567ffffffffffffffff8111156103c757600080fd5b6020830191508360208260051b85010111156103e257600080fd5b9250929050565b600080600080604085870312156103ff57600080fd5b843567ffffffffffffffff8082111561041757600080fd5b6104238883890161039d565b9096509450602087013591508082111561043c57600080fd5b506104498782880161039d565b95989497509550505050565b634e487b7160e01b600052603260045260246000fd5b808201808211156101af57634e487b7160e01b600052601160045260246000fd5b6000826104a957634e487b7160e01b600052601260045260246000fd5b50069056fea2646970667358221220cc6613ba91bd307510b2f6888394324f81fad7279b235f04a99a26a7d1a5a5d864736f6c63430008180033",
  "linkReferences": {},
  "deployedLinkReferences": {}
}