{
  "_format": "hh-sol-artifact-1",
  "contractName": "SportsGenericV2Consumer",
  "sourceName": "contracts/test/consumers/sports/SportsGenericV2Consumer.sol",
  "abi": [
    {
      "inputs": [
        {
          "internalType": "address",
          "name": "_dataFeedStore",
          "type": "address"
        }
      ],
      "stateMutability": "nonpayable",
      "type": "constructor"
    },
    {
      "anonymous": false,
      "inputs": [],
      "name": "DataDecoded",
      "type": "event"
    },
    {
      "inputs": [
        {
          "internalType": "uint32",
          "name": "key",
          "type": "uint32"
        }
      ],
      "name": "decodeBasketballData",
      "outputs": [
        {
          "components": [
            {
              "internalType": "uint32",
              "name": "homeScore",
              "type": "uint32"
            },
            {
              "internalType": "uint32",
              "name": "awayScore",
              "type": "uint32"
            },
            {
              "internalType": "uint32",
              "name": "homeShots",
              "type": "uint32"
            },
            {
              "internalType": "uint32",
              "name": "awayShots",
              "type": "uint32"
            },
            {
              "internalType": "uint32",
              "name": "homeBlocks",
              "type": "uint32"
            },
            {
              "internalType": "uint32",
              "name": "awayBlocks",
              "type": "uint32"
            },
            {
              "internalType": "uint32",
              "name": "homeSteals",
              "type": "uint32"
            },
            {
              "internalType": "uint32",
              "name": "awaySteals",
              "type": "uint32"
            },
            {
              "internalType": "uint32",
              "name": "homeTurnovers",
              "type": "uint32"
            },
            {
              "internalType": "uint32",
              "name": "awayTurnovers",
              "type": "uint32"
            },
            {
              "internalType": "uint32",
              "name": "homeFirstQtrScore",
              "type": "uint32"
            },
            {
              "internalType": "uint32",
              "name": "awayFirstQtrScore",
              "type": "uint32"
            },
            {
              "internalType": "uint32",
              "name": "homeSecondQtrScore",
              "type": "uint32"
            },
            {
              "internalType": "uint32",
              "name": "awaySecondQtrScore",
              "type": "uint32"
            },
            {
              "internalType": "uint32",
              "name": "homeThirdQtrScore",
              "type": "uint32"
            },
            {
              "internalType": "uint32",
              "name": "awayThirdQtrScore",
              "type": "uint32"
            },
            {
              "internalType": "uint32",
              "name": "homeFourthQtrScore",
              "type": "uint32"
            },
            {
              "internalType": "uint32",
              "name": "awayFourthQtrScore",
              "type": "uint32"
            }
          ],
          "internalType": "struct SportsDecoder.BasketballData",
          "name": "",
          "type": "tuple"
        }
      ],
      "stateMutability": "nonpayable",
      "type": "function"
    },
    {
      "inputs": [
        {
          "internalType": "uint32",
          "name": "key",
          "type": "uint32"
        }
      ],
      "name": "decodeFootballData",
      "outputs": [
        {
          "components": [
            {
              "internalType": "uint32",
              "name": "homeScore",
              "type": "uint32"
            },
            {
              "internalType": "uint32",
              "name": "awayScore",
              "type": "uint32"
            },
            {
              "internalType": "uint32",
              "name": "homeShots",
              "type": "uint32"
            },
            {
              "internalType": "uint32",
              "name": "awayShots",
              "type": "uint32"
            },
            {
              "internalType": "uint32",
              "name": "homePenalties",
              "type": "uint32"
            },
            {
              "internalType": "uint32",
              "name": "awayPenalties",
              "type": "uint32"
            },
            {
              "internalType": "uint32",
              "name": "homeSaves",
              "type": "uint32"
            },
            {
              "internalType": "uint32",
              "name": "awaySaves",
              "type": "uint32"
            },
            {
              "internalType": "uint32",
              "name": "homeFirstHalfTimeScore",
              "type": "uint32"
            },
            {
              "internalType": "uint32",
              "name": "awayFirstHalfTimeScore",
              "type": "uint32"
            }
          ],
          "internalType": "struct SportsDecoder.FootballData",
          "name": "",
          "type": "tuple"
        }
      ],
      "stateMutability": "nonpayable",
      "type": "function"
    }
  ],
  "bytecode": "0x60a060405234801561001057600080fd5b5060405161092b38038061092b83398101604081905261002f91610040565b6001600160a01b0316608052610070565b60006020828403121561005257600080fd5b81516001600160a01b038116811461006957600080fd5b9392505050565b60805161089961009260003960008181610133015261038001526108996000f3fe608060405234801561001057600080fd5b50600436106100365760003560e01c8063c011fb271461003b578063c44f3d0314610064575b600080fd5b61004e61004936600461051d565b610084565b60405161005b919061054a565b60405180910390f35b61007761007236600461051d565b610311565b60405161005b9190610697565b6040805161024081018252600080825260208201819052918101829052606081018290526080810182905260a0810182905260c0810182905260e08101829052610100810182905261012081018290526101408101829052610160810182905261018081018290526101a081018290526101c081018290526101e081018290526102008101829052610220810191909152604051631c4e987b60e01b815263ffffffff831660048201526000907f00000000000000000000000000000000000000000000000000000000000000006001600160a01b031690631c4e987b90602401600060405180830381865afa158015610182573d6000803e3d6000fd5b505050506040513d6000823e601f3d908101601f191682016040526101aa919081019061078f565b6040519091507f015dff2feb2fdfc405dcabf9ccbbf574c8de1dbfdf545b254839d7510df98a5190600090a16000816000815181106101eb576101eb61084d565b602002602001015160001c905060008260018151811061020d5761020d61084d565b602002602001015160001c905060008360028151811061022f5761022f61084d565b602090810291909101810151604080516102408101825260e087811c825263ffffffff60c089811c82168488015260a08a811c83168587015260808b811c84166060808801919091528c811c8516828801528c881c8516838801528c8a1c8516848801529b841685870152938a901c6101008601529089901c821661012085015288901c81166101408401529087901c81166101608301529686901c87166101808201529085901c86166101a082015284831c86166101c08201529385166101e08501529081901c841661020084015292909216610220820152949350505050565b6040805161014081018252600080825260208201819052918101829052606081018290526080810182905260a0810182905260c0810182905260e081018290526101008101829052610120810191909152604051631c4e987b60e01b815263ffffffff831660048201526000907f00000000000000000000000000000000000000000000000000000000000000006001600160a01b031690631c4e987b90602401600060405180830381865afa1580156103cf573d6000803e3d6000fd5b505050506040513d6000823e601f3d908101601f191682016040526103f7919081019061078f565b6040519091507f015dff2feb2fdfc405dcabf9ccbbf574c8de1dbfdf545b254839d7510df98a5190600090a16000816000815181106104385761043861084d565b602002602001015160001c905060008260018151811061045a5761045a61084d565b602002602001015160001c905060405180610140016040528060e084901c63ffffffff16815260200160c084901c63ffffffff16815260200160a084901c63ffffffff168152602001608084901c63ffffffff168152602001606084901c63ffffffff168152602001604084901c63ffffffff168152602001602084901c63ffffffff1681526020018363ffffffff16815260200160208367ffffffffffffffff16901c63ffffffff1681526020018263ffffffff168152509350505050919050565b60006020828403121561052f57600080fd5b813563ffffffff8116811461054357600080fd5b9392505050565b815163ffffffff16815261024081016020830151610570602084018263ffffffff169052565b506040830151610588604084018263ffffffff169052565b5060608301516105a0606084018263ffffffff169052565b5060808301516105b8608084018263ffffffff169052565b5060a08301516105d060a084018263ffffffff169052565b5060c08301516105e860c084018263ffffffff169052565b5060e083015161060060e084018263ffffffff169052565b506101008381015163ffffffff90811691840191909152610120808501518216908401526101408085015182169084015261016080850151821690840152610180808501518216908401526101a0808501518216908401526101c0808501518216908401526101e080850151821690840152610200808501518216908401526102208085015191821681850152905b505092915050565b815163ffffffff168152610140810160208301516106bd602084018263ffffffff169052565b5060408301516106d5604084018263ffffffff169052565b5060608301516106ed606084018263ffffffff169052565b506080830151610705608084018263ffffffff169052565b5060a083015161071d60a084018263ffffffff169052565b5060c083015161073560c084018263ffffffff169052565b5060e083015161074d60e084018263ffffffff169052565b506101008381015163ffffffff81168483015250506101208381015163ffffffff81168483015261068f565b634e487b7160e01b600052604160045260246000fd5b600060208083850312156107a257600080fd5b825167ffffffffffffffff808211156107ba57600080fd5b818501915085601f8301126107ce57600080fd5b8151818111156107e0576107e0610779565b8060051b604051601f19603f8301168101818110858211171561080557610805610779565b60405291825284820192508381018501918883111561082357600080fd5b938501935b8285101561084157845184529385019392850192610828565b98975050505050505050565b634e487b7160e01b600052603260045260246000fdfea264697066735822122001c517f7f09c1a513df54c344453a684fc0e1d0eba8f082fa70f6aa207d8ba3464736f6c63430008180033",
  "linkReferences": {},
  "deployedLinkReferences": {}
}