{
  "_format": "hh-sol-artifact-1",
  "contractName": "SportsDataFeedStoreGenericV1",
  "sourceName": "contracts/test/sports/SportsDataFeedStoreGenericV1.sol",
  "abi": [
    {
      "inputs": [],
      "name": "NotAuthorized",
      "type": "error"
    },
    {
      "inputs": [],
      "name": "WrongInputLength",
      "type": "error"
    },
    {
      "anonymous": false,
      "inputs": [
        {
          "indexed": false,
          "internalType": "uint32",
          "name": "key",
          "type": "uint32"
        },
        {
          "indexed": false,
          "internalType": "bytes32",
          "name": "description",
          "type": "bytes32"
        }
      ],
      "name": "DataFeedSet",
      "type": "event"
    },
    {
      "inputs": [
        {
          "internalType": "uint256",
          "name": "",
          "type": "uint256"
        }
      ],
      "name": "dataFeeds",
      "outputs": [
        {
          "internalType": "bytes32",
          "name": "",
          "type": "bytes32"
        }
      ],
      "stateMutability": "view",
      "type": "function"
    },
    {
      "inputs": [
        {
          "internalType": "uint256",
          "name": "key",
          "type": "uint256"
        },
        {
          "internalType": "uint256",
          "name": "length",
          "type": "uint256"
        }
      ],
      "name": "getDataFeed",
      "outputs": [
        {
          "internalType": "bytes32[]",
          "name": "result",
          "type": "bytes32[]"
        }
      ],
      "stateMutability": "view",
      "type": "function"
    },
    {
      "inputs": [],
      "name": "owner",
      "outputs": [
        {
          "internalType": "address",
          "name": "",
          "type": "address"
        }
      ],
      "stateMutability": "view",
      "type": "function"
    },
    {
      "inputs": [
        {
          "internalType": "uint256[]",
          "name": "keys",
          "type": "uint256[]"
        },
        {
          "internalType": "bytes32[][]",
          "name": "values",
          "type": "bytes32[][]"
        },
        {
          "internalType": "bytes32[]",
          "name": "descriptions",
          "type": "bytes32[]"
        }
      ],
      "name": "setFeeds",
      "outputs": [],
      "stateMutability": "nonpayable",
      "type": "function"
    }
  ],
  "bytecode": "0x60a060405234801561001057600080fd5b503360805260805161055c6100366000396000818160be0152610103015261055c6000f3fe608060405234801561001057600080fd5b506004361061004c5760003560e01c80630dce79fb146100515780630f6cd1201461006657806311cfb71c146100995780638da5cb5b146100b9575b600080fd5b61006461005f366004610370565b6100f8565b005b61008661007436600461040a565b60006020819052908152604090205481565b6040519081526020015b60405180910390f35b6100ac6100a7366004610423565b610291565b6040516100909190610445565b6100e07f000000000000000000000000000000000000000000000000000000000000000081565b6040516001600160a01b039091168152602001610090565b336001600160a01b037f000000000000000000000000000000000000000000000000000000000000000016146101415760405163ea8e4eb560e01b815260040160405180910390fd5b8483811461016257604051631201d2c760e31b815260040160405180910390fd5b60005b8181101561028757600088888381811061018157610181610489565b905060200201359050600087878481811061019e5761019e610489565b90506020028101906101b0919061049f565b9050905060005b81811015610222578888858181106101d1576101d1610489565b90506020028101906101e3919061049f565b828181106101f3576101f3610489565b90506020020135600080838661020991906104e9565b81526020810191909152604001600020556001016101b7565b507f2490cbe182701afbb80ee94866e224c57b7740452103132ebab560999a71a9208287878681811061025757610257610489565b6040805163ffffffff90951685526020918202939093013590840152500160405180910390a15050600101610165565b5050505050505050565b60608167ffffffffffffffff8111156102ac576102ac610510565b6040519080825280602002602001820160405280156102d5578160200160208202803683370190505b50905060005b8281101561031d57600084815260208190526040902054825183908390811061030657610306610489565b6020908102919091010152600193840193016102db565b5092915050565b60008083601f84011261033657600080fd5b50813567ffffffffffffffff81111561034e57600080fd5b6020830191508360208260051b850101111561036957600080fd5b9250929050565b6000806000806000806060878903121561038957600080fd5b863567ffffffffffffffff808211156103a157600080fd5b6103ad8a838b01610324565b909850965060208901359150808211156103c657600080fd5b6103d28a838b01610324565b909650945060408901359150808211156103eb57600080fd5b506103f889828a01610324565b979a9699509497509295939492505050565b60006020828403121561041c57600080fd5b5035919050565b6000806040838503121561043657600080fd5b50508035926020909101359150565b6020808252825182820181905260009190848201906040850190845b8181101561047d57835183529284019291840191600101610461565b50909695505050505050565b634e487b7160e01b600052603260045260246000fd5b6000808335601e198436030181126104b657600080fd5b83018035915067ffffffffffffffff8211156104d157600080fd5b6020019150600581901b360382131561036957600080fd5b8082018082111561050a57634e487b7160e01b600052601160045260246000fd5b92915050565b634e487b7160e01b600052604160045260246000fdfea264697066735822122022fb649ff5af49566c4b04318b53c5a100ba07d5cdb48a5ad1a537ad2a4dde1f64736f6c63430008180033",
  "linkReferences": {},
  "deployedLinkReferences": {}
}