{
  "_format": "hh-sol-artifact-1",
  "contractName": "ProxyCallFeedStoreConsumer",
  "sourceName": "contracts/test/examples/ProxyCallFeedStoreConsumer.sol",
  "abi": [
    {
      "inputs": [
        {
          "internalType": "address",
          "name": "feedAddress",
          "type": "address"
        }
      ],
      "stateMutability": "nonpayable",
      "type": "constructor"
    },
    {
      "inputs": [],
      "name": "feed",
      "outputs": [
        {
          "internalType": "address",
          "name": "",
          "type": "address"
        }
      ],
      "stateMutability": "view",
      "type": "function"
    },
    {
      "inputs": [
        {
          "internalType": "uint32",
          "name": "key",
          "type": "uint32"
        }
      ],
      "name": "getLatestAnswer",
      "outputs": [
        {
          "internalType": "uint256",
          "name": "value",
          "type": "uint256"
        },
        {
          "internalType": "uint64",
          "name": "timestamp",
          "type": "uint64"
        }
      ],
      "stateMutability": "view",
      "type": "function"
    },
    {
      "inputs": [
        {
          "internalType": "uint32",
          "name": "key",
          "type": "uint32"
        }
      ],
      "name": "getLatestRound",
      "outputs": [
        {
          "internalType": "uint32",
          "name": "roundId",
          "type": "uint32"
        }
      ],
      "stateMutability": "view",
      "type": "function"
    },
    {
      "inputs": [
        {
          "internalType": "uint32",
          "name": "key",
          "type": "uint32"
        }
      ],
      "name": "getLatestRoundData",
      "outputs": [
        {
          "internalType": "int256",
          "name": "value",
          "type": "int256"
        },
        {
          "internalType": "uint256",
          "name": "timestamp",
          "type": "uint256"
        },
        {
          "internalType": "uint80",
          "name": "roundId",
          "type": "uint80"
        }
      ],
      "stateMutability": "view",
      "type": "function"
    },
    {
      "inputs": [
        {
          "internalType": "uint32",
          "name": "key",
          "type": "uint32"
        },
        {
          "internalType": "uint32",
          "name": "roundId",
          "type": "uint32"
        }
      ],
      "name": "getRoundData",
      "outputs": [
        {
          "internalType": "uint256",
          "name": "value",
          "type": "uint256"
        },
        {
          "internalType": "uint64",
          "name": "timestamp",
          "type": "uint64"
        }
      ],
      "stateMutability": "view",
      "type": "function"
    }
  ],
  "bytecode": "0x60a060405234801561001057600080fd5b506040516104b63803806104b683398101604081905261002f91610040565b6001600160a01b0316608052610070565b60006020828403121561005257600080fd5b81516001600160a01b038116811461006957600080fd5b9392505050565b6080516104106100a6600039600081816061015281816101500152818161020601528181610254015261028901526104106000f3fe608060405234801561001057600080fd5b50600436106100575760003560e01c806337a7b7d81461005c5780636c30ebae146100a057806388889aef146100d1578063cd88ca84146100e4578063e8eb30d01461010c575b600080fd5b6100837f000000000000000000000000000000000000000000000000000000000000000081565b6040516001600160a01b0390911681526020015b60405180910390f35b6100b36100ae366004610385565b610146565b6040805192835267ffffffffffffffff909116602083015201610097565b6100b36100df3660046103b8565b6101dd565b6100f76100f23660046103b8565b61024c565b60405163ffffffff9091168152602001610097565b61011f61011a3660046103b8565b61027e565b60408051938452602084019290925269ffffffffffffffffffff1690820152606001610097565b60008060006101cd7f00000000000000000000000000000000000000000000000000000000000000008663200000001760e01b86604051602401610196919063ffffffff91909116815260200190565b60408051601f198184030181529190526020810180516001600160e01b03166001600160e01b0319909316929092179091526102bd565b604081901c969095509350505050565b6040516001600160e01b03196380000000831760e01b1660208201526000908190819061023d907f0000000000000000000000000000000000000000000000000000000000000000906024016040516020818303038152906040526102bd565b604081901c9590945092505050565b6000610278827f00000000000000000000000000000000000000000000000000000000000000006102e1565b92915050565b60008060006102ad847f0000000000000000000000000000000000000000000000000000000000000000610313565b5091979096509194509092505050565b6000604051602081845160208601875afa806102d857600080fd5b50519392505050565b60006040518363400000001760e01b60005260408160046000865afa8061030757600080fd5b50602001519392505050565b6000806000806000806040518863c00000001760e01b600052604081600460008b5afa8061034057600080fd5b50805160209091015199604082901c995067ffffffffffffffff90911697508796508995509350505050565b803563ffffffff8116811461038057600080fd5b919050565b6000806040838503121561039857600080fd5b6103a18361036c565b91506103af6020840161036c565b90509250929050565b6000602082840312156103ca57600080fd5b6103d38261036c565b939250505056fea2646970667358221220a7e14366424be26aae2f4a5ca25bb4a496ca0bbd362cbf44f898d0b634e0450664736f6c63430008180033",
  "linkReferences": {},
  "deployedLinkReferences": {}
}