{
  "_format": "hh-sol-artifact-1",
  "contractName": "RawCallFeedStoreConsumer",
  "sourceName": "contracts/test/examples/RawCallFeedStoreConsumer.sol",
  "abi": [
    {
      "inputs": [
        {
          "internalType": "address",
          "name": "feedAddress",
          "type": "address"
        }
      ],
      "stateMutability": "nonpayable",
      "type": "constructor"
    },
    {
      "inputs": [],
      "name": "feed",
      "outputs": [
        {
          "internalType": "address",
          "name": "",
          "type": "address"
        }
      ],
      "stateMutability": "view",
      "type": "function"
    },
    {
      "inputs": [
        {
          "internalType": "uint32",
          "name": "key",
          "type": "uint32"
        }
      ],
      "name": "getLatestAnswer",
      "outputs": [
        {
          "internalType": "uint256",
          "name": "value",
          "type": "uint256"
        },
        {
          "internalType": "uint64",
          "name": "timestamp",
          "type": "uint64"
        }
      ],
      "stateMutability": "view",
      "type": "function"
    },
    {
      "inputs": [
        {
          "internalType": "uint32",
          "name": "key",
          "type": "uint32"
        }
      ],
      "name": "getLatestRound",
      "outputs": [
        {
          "internalType": "uint32",
          "name": "roundId",
          "type": "uint32"
        }
      ],
      "stateMutability": "view",
      "type": "function"
    },
    {
      "inputs": [
        {
          "internalType": "uint32",
          "name": "key",
          "type": "uint32"
        }
      ],
      "name": "getLatestRoundData",
      "outputs": [
        {
          "internalType": "uint256",
          "name": "value",
          "type": "uint256"
        },
        {
          "internalType": "uint64",
          "name": "timestamp",
          "type": "uint64"
        },
        {
          "internalType": "uint256",
          "name": "roundId",
          "type": "uint256"
        }
      ],
      "stateMutability": "view",
      "type": "function"
    },
    {
      "inputs": [
        {
          "internalType": "uint32",
          "name": "key",
          "type": "uint32"
        },
        {
          "internalType": "uint32",
          "name": "roundId",
          "type": "uint32"
        }
      ],
      "name": "getRoundData",
      "outputs": [
        {
          "internalType": "uint256",
          "name": "value",
          "type": "uint256"
        },
        {
          "internalType": "uint64",
          "name": "timestamp",
          "type": "uint64"
        }
      ],
      "stateMutability": "view",
      "type": "function"
    }
  ],
  "bytecode": "0x60a060405234801561001057600080fd5b5060405161079938038061079983398101604081905261002f91610040565b6001600160a01b0316608052610070565b60006020828403121561005257600080fd5b81516001600160a01b038116811461006957600080fd5b9392505050565b6080516106f36100a66000396000818160610152818161014b0152818161028f0152818161037d015261044401526106f36000f3fe608060405234801561001057600080fd5b50600436106100575760003560e01c806337a7b7d81461005c5780636c30ebae146100a057806388889aef146100d1578063cd88ca84146100e4578063e8eb30d01461010c575b600080fd5b6100837f000000000000000000000000000000000000000000000000000000000000000081565b6040516001600160a01b0390911681526020015b60405180910390f35b6100b36100ae366004610552565b610143565b6040805192835267ffffffffffffffff909116602083015201610097565b6100b36100df36600461058b565b610260565b6100f76100f236600461058b565b610350565b60405163ffffffff9091168152602001610097565b61011f61011a36600461058b565b61043a565b6040805193845267ffffffffffffffff909216602084015290820152606001610097565b6000806000807f00000000000000000000000000000000000000000000000000000000000000006001600160a01b03168663200000001760e01b8660405160240161019a919063ffffffff91909116815260200190565b60408051601f198184030181529181526020820180516001600160e01b03166001600160e01b03199094169390931790925290516101d891906105af565b600060405180830381855afa9150503d8060008114610213576040519150601f19603f3d011682016040523d82523d6000602084013e610218565b606091505b5091509150816102435760405162461bcd60e51b815260040161023a906105de565b60405180910390fd5b600061024e82610615565b604081901c9890975095505050505050565b6040516001600160e01b03196380000000831760e01b1660208201526000908190819081906001600160a01b037f0000000000000000000000000000000000000000000000000000000000000000169060240160408051601f19818403018152908290526102cd916105af565b600060405180830381855afa9150503d8060008114610308576040519150601f19603f3d011682016040523d82523d6000602084013e61030d565b606091505b50915091508161032f5760405162461bcd60e51b815260040161023a906105de565b6103388161063c565b60401c61034482610615565b90969095509350505050565b6040516001600160e01b03196340000000831760e01b166020820152600090819081906001600160a01b037f0000000000000000000000000000000000000000000000000000000000000000169060240160408051601f19818403018152908290526103bb916105af565b600060405180830381855afa9150503d80600081146103f6576040519150601f19603f3d011682016040523d82523d6000602084013e6103fb565b606091505b50915091508161041d5760405162461bcd60e51b815260040161023a906105de565b808060200190518101906104319190610674565b95945050505050565b60008060008060007f00000000000000000000000000000000000000000000000000000000000000006001600160a01b03168663c000000017604051602001610496919060e09190911b6001600160e01b031916815260040190565b60408051601f19818403018152908290526104b0916105af565b600060405180830381855afa9150503d80600081146104eb576040519150601f19603f3d011682016040523d82523d6000602084013e6104f0565b606091505b5091509150816105125760405162461bcd60e51b815260040161023a906105de565b600080828060200190518101906105299190610699565b604082901c9a919950975095505050505050565b63ffffffff8116811461054f57600080fd5b50565b6000806040838503121561056557600080fd5b82356105708161053d565b915060208301356105808161053d565b809150509250929050565b60006020828403121561059d57600080fd5b81356105a88161053d565b9392505050565b6000825160005b818110156105d057602081860181015185830152016105b6565b506000920191825250919050565b6020808252601a908201527f446174614665656453746f72653a2063616c6c206661696c6564000000000000604082015260600190565b80516020808301519190811015610636576000198160200360031b1b821691505b50919050565b8051602082015167ffffffffffffffff19808216929190601883101561066c5780818460180360031b1b83161693505b505050919050565b6000806040838503121561068757600080fd5b8251915060208301516105808161053d565b600080604083850312156106ac57600080fd5b50508051602090910151909290915056fea26469706673582212202606c3e3891d481f86337325ceb858eb937f7301a3bd0fd0e9fa37cc1cb9f3ce64736f6c63430008180033",
  "linkReferences": {},
  "deployedLinkReferences": {}
}