{
  "_format": "hh-sol-artifact-1",
  "contractName": "DataFeedStoreGenericV2",
  "sourceName": "contracts/test/DataFeedStoreGenericV2.sol",
  "abi": [
    {
      "inputs": [],
      "name": "NotAuthorized",
      "type": "error"
    },
    {
      "inputs": [],
      "name": "WrongInputLength",
      "type": "error"
    },
    {
      "inputs": [
        {
          "internalType": "uint256",
          "name": "",
          "type": "uint256"
        }
      ],
      "name": "dataFeeds",
      "outputs": [
        {
          "internalType": "bytes32",
          "name": "",
          "type": "bytes32"
        }
      ],
      "stateMutability": "view",
      "type": "function"
    },
    {
      "inputs": [
        {
          "internalType": "uint32",
          "name": "key",
          "type": "uint32"
        }
      ],
      "name": "getDataFeed",
      "outputs": [
        {
          "internalType": "bytes32",
          "name": "",
          "type": "bytes32"
        }
      ],
      "stateMutability": "view",
      "type": "function"
    },
    {
      "inputs": [],
      "name": "owner",
      "outputs": [
        {
          "internalType": "address",
          "name": "",
          "type": "address"
        }
      ],
      "stateMutability": "view",
      "type": "function"
    },
    {
      "inputs": [
        {
          "internalType": "bytes",
          "name": "data",
          "type": "bytes"
        }
      ],
      "name": "setFeeds",
      "outputs": [],
      "stateMutability": "nonpayable",
      "type": "function"
    }
  ],
  "bytecode": "0x60a060405234801561001057600080fd5b50336080526080516103a16100366000396000818160c4015261010901526103a16000f3fe608060405234801561001057600080fd5b506004361061004c5760003560e01c80630e54f932146100515780630f6cd1201461008a5780631a2d80ac146100aa5780638da5cb5b146100bf575b600080fd5b61007761005f3660046101f2565b63ffffffff1660009081526020819052604090205490565b6040519081526020015b60405180910390f35b61007761009836600461021f565b60006020819052908152604090205481565b6100bd6100b8366004610238565b6100fe565b005b6100e67f000000000000000000000000000000000000000000000000000000000000000081565b6040516001600160a01b039091168152602001610081565b336001600160a01b037f000000000000000000000000000000000000000000000000000000000000000016146101475760405163ea8e4eb560e01b815260040160405180910390fd5b6101526024826102aa565b1561017057604051631201d2c760e31b815260040160405180910390fd5b60005b818110156101ed5782826101888360046102cc565b906101948460246102cc565b926101a1939291906102f3565b6101aa9161031d565b6000808584866101bb8260046102cc565b926101c8939291906102f3565b6101d19161033b565b60e01c8152602081019190915260400160002055602401610173565b505050565b60006020828403121561020457600080fd5b813563ffffffff8116811461021857600080fd5b9392505050565b60006020828403121561023157600080fd5b5035919050565b6000806020838503121561024b57600080fd5b823567ffffffffffffffff8082111561026357600080fd5b818501915085601f83011261027757600080fd5b81358181111561028657600080fd5b86602082850101111561029857600080fd5b60209290920196919550909350505050565b6000826102c757634e487b7160e01b600052601260045260246000fd5b500690565b808201808211156102ed57634e487b7160e01b600052601160045260246000fd5b92915050565b6000808585111561030357600080fd5b8386111561031057600080fd5b5050820193919092039150565b803560208310156102ed57600019602084900360031b1b1692915050565b6001600160e01b031981358181169160048510156103635780818660040360031b1b83161692505b50509291505056fea26469706673582212200eec9186fc8f4a1d09c518493d49f228daa104d729a6341f13ce536ab756c62964736f6c63430008180033",
  "linkReferences": {},
  "deployedLinkReferences": {}
}