{
  "_format": "hh-sol-artifact-1",
  "contractName": "HistoricDataFeedConsumer",
  "sourceName": "contracts/test/consumers/historic/HistoricDataFeedConsumer.sol",
  "abi": [
    {
      "inputs": [
        {
          "internalType": "address",
          "name": "_dataFeedStore",
          "type": "address"
        }
      ],
      "stateMutability": "nonpayable",
      "type": "constructor"
    },
    {
      "inputs": [],
      "name": "GetFeedByIdFailed",
      "type": "error"
    },
    {
      "inputs": [
        {
          "internalType": "uint32",
          "name": "",
          "type": "uint32"
        }
      ],
      "name": "counters",
      "outputs": [
        {
          "internalType": "uint32",
          "name": "",
          "type": "uint32"
        }
      ],
      "stateMutability": "view",
      "type": "function"
    },
    {
      "inputs": [],
      "name": "dataFeedStore",
      "outputs": [
        {
          "internalType": "address",
          "name": "",
          "type": "address"
        }
      ],
      "stateMutability": "view",
      "type": "function"
    },
    {
      "inputs": [
        {
          "internalType": "uint32",
          "name": "key",
          "type": "uint32"
        },
        {
          "internalType": "uint32",
          "name": "counter",
          "type": "uint32"
        }
      ],
      "name": "getFeedAtCounter",
      "outputs": [
        {
          "components": [
            {
              "internalType": "bytes24",
              "name": "value",
              "type": "bytes24"
            },
            {
              "internalType": "uint64",
              "name": "timestamp",
              "type": "uint64"
            }
          ],
          "internalType": "struct IHistoricDataFeed.Transmission",
          "name": "",
          "type": "tuple"
        }
      ],
      "stateMutability": "view",
      "type": "function"
    },
    {
      "inputs": [
        {
          "internalType": "uint32",
          "name": "key",
          "type": "uint32"
        }
      ],
      "name": "getFeedById",
      "outputs": [
        {
          "components": [
            {
              "internalType": "bytes24",
              "name": "value",
              "type": "bytes24"
            },
            {
              "internalType": "uint64",
              "name": "timestamp",
              "type": "uint64"
            }
          ],
          "internalType": "struct IHistoricDataFeed.Transmission",
          "name": "",
          "type": "tuple"
        }
      ],
      "stateMutability": "view",
      "type": "function"
    },
    {
      "inputs": [
        {
          "internalType": "uint32",
          "name": "",
          "type": "uint32"
        }
      ],
      "name": "latestDataFeeds",
      "outputs": [
        {
          "internalType": "bytes24",
          "name": "value",
          "type": "bytes24"
        },
        {
          "internalType": "uint64",
          "name": "timestamp",
          "type": "uint64"
        }
      ],
      "stateMutability": "view",
      "type": "function"
    },
    {
      "inputs": [
        {
          "internalType": "uint32[]",
          "name": "keys",
          "type": "uint32[]"
        },
        {
          "internalType": "uint32[]",
          "name": "counters_",
          "type": "uint32[]"
        }
      ],
      "name": "setMultipleFeedsAtCounter",
      "outputs": [],
      "stateMutability": "nonpayable",
      "type": "function"
    },
    {
      "inputs": [
        {
          "internalType": "uint32[]",
          "name": "keys",
          "type": "uint32[]"
        }
      ],
      "name": "setMultipleFetchedFeedsById",
      "outputs": [],
      "stateMutability": "nonpayable",
      "type": "function"
    },
    {
      "inputs": [
        {
          "internalType": "uint32[]",
          "name": "keys",
          "type": "uint32[]"
        }
      ],
      "name": "setMultipleLatestFeedsById",
      "outputs": [],
      "stateMutability": "nonpayable",
      "type": "function"
    }
  ],
  "bytecode": "0x60a060405234801561001057600080fd5b506040516109c63803806109c683398101604081905261002f91610040565b6001600160a01b0316608052610070565b60006020828403121561005257600080fd5b81516001600160a01b038116811461006957600080fd5b9392505050565b6080516109266100a0600039600081816101f0015281816105c30152818161062701526106b701526109266000f3fe608060405234801561001057600080fd5b50600436106100885760003560e01c80638b90201d1161005b5780638b90201d146101eb578063c8aa30d41461022a578063d363e9b31461023d578063f67c36871461025057600080fd5b806315d273221461008d5780635f8b26f4146100a257806366a0a9e11461014e578063895a26d414610189575b600080fd5b6100a061009b3660046107c5565b6102d4565b005b6101196100b0366004610820565b6040805180820182526000808252602091820181905263ffffffff94851681528082528281209390941684529182529182902082518084018452905467ffffffffffffffff199381901b939093168152600160c01b90920467ffffffffffffffff169082015290565b60408051825167ffffffffffffffff1916815260209283015167ffffffffffffffff1692810192909252015b60405180910390f35b61017461015c366004610853565b60016020526000908152604090205463ffffffff1681565b60405163ffffffff9091168152602001610145565b6101c1610197366004610853565b60026020526000908152604090819020549081901b90600160c01b900467ffffffffffffffff1682565b6040805167ffffffffffffffff19909316835267ffffffffffffffff909116602083015201610145565b6102127f000000000000000000000000000000000000000000000000000000000000000081565b6040516001600160a01b039091168152602001610145565b6100a061023836600461086e565b610419565b6100a061024b3660046107c5565b61052f565b61011961025e366004610853565b60408051808201909152600080825260208201525063ffffffff908116600090815260208181526040808320600183528184205490941683529281529082902082518084018452905467ffffffffffffffff199381901b939093168152600160c01b90920467ffffffffffffffff169082015290565b60005b818110156104145760006103108484848181106102f6576102f66108da565b905060200201602081019061030b9190610853565b6105bb565b9050610341848484818110610327576103276108da565b905060200201602081019061033c9190610853565b6105ed565b600080868686818110610356576103566108da565b905060200201602081019061036b9190610853565b63ffffffff90811682526020808301939093526040918201600090812091861681529083528181208451949093015167ffffffffffffffff16600160c01b029390911c92909217905581906001908686868181106103cb576103cb6108da565b90506020020160208101906103e09190610853565b63ffffffff90811682526020820192909252604001600020805463ffffffff191692909116919091179055506001016102d7565b505050565b60005b838110156105285761047a858583818110610439576104396108da565b905060200201602081019061044e9190610853565b848484818110610460576104606108da565b90506020020160208101906104759190610853565b61068a565b60008087878581811061048f5761048f6108da565b90506020020160208101906104a49190610853565b63ffffffff1663ffffffff16815260200190815260200160002060008585858181106104d2576104d26108da565b90506020020160208101906104e79190610853565b63ffffffff16815260208082019290925260409081016000208351939092015167ffffffffffffffff16600160c01b0292901c91909117905560010161041c565b5050505050565b60005b818110156104145761054f838383818110610327576103276108da565b60026000858585818110610565576105656108da565b905060200201602081019061057a9190610853565b63ffffffff16815260208082019290925260409081016000208351939092015167ffffffffffffffff16600160c01b0292901c919091179055600101610532565b60006105e7827f0000000000000000000000000000000000000000000000000000000000000000610723565b92915050565b60408051808201909152600080825260208201526040516001600160e01b03196380000000841760e01b1660208201526105e79061065e907f000000000000000000000000000000000000000000000000000000000000000090602401604051602081830303815290604052610755565b6040805180820190915267ffffffffffffffff198216815267ffffffffffffffff909116602082015290565b604080518082019091526000808252602082015260405163ffffffff8316602482015261071c9061065e907f0000000000000000000000000000000000000000000000000000000000000000906320000000871760e01b9060440160408051601f198184030181529190526020810180516001600160e01b03166001600160e01b031990931692909217909152610755565b9392505050565b60006040518363400000001760e01b60005260408160046000865afa8061074957600080fd5b50602001519392505050565b6000604051602081845160208601875afa8061077057600080fd5b50519392505050565b60008083601f84011261078b57600080fd5b50813567ffffffffffffffff8111156107a357600080fd5b6020830191508360208260051b85010111156107be57600080fd5b9250929050565b600080602083850312156107d857600080fd5b823567ffffffffffffffff8111156107ef57600080fd5b6107fb85828601610779565b90969095509350505050565b803563ffffffff8116811461081b57600080fd5b919050565b6000806040838503121561083357600080fd5b61083c83610807565b915061084a60208401610807565b90509250929050565b60006020828403121561086557600080fd5b61071c82610807565b6000806000806040858703121561088457600080fd5b843567ffffffffffffffff8082111561089c57600080fd5b6108a888838901610779565b909650945060208701359150808211156108c157600080fd5b506108ce87828801610779565b95989497509550505050565b634e487b7160e01b600052603260045260246000fdfea2646970667358221220ef634f3eabeb5ecaaf1ac2dfd821f48461ca0fd6c9493802cb3e5d4ea85e2b0b64736f6c63430008180033",
  "linkReferences": {},
  "deployedLinkReferences": {}
}