{
  "_format": "hh-sol-artifact-1",
  "contractName": "ChainlinkProxy",
  "sourceName": "contracts/chainlink-proxies/ChainlinkProxy.sol",
  "abi": [
    {
      "inputs": [
        {
          "internalType": "string",
          "name": "_description",
          "type": "string"
        },
        {
          "internalType": "uint8",
          "name": "_decimals",
          "type": "uint8"
        },
        {
          "internalType": "uint32",
          "name": "_key",
          "type": "uint32"
        },
        {
          "internalType": "address",
          "name": "_dataFeedStore",
          "type": "address"
        }
      ],
      "stateMutability": "nonpayable",
      "type": "constructor"
    },
    {
      "inputs": [],
      "name": "dataFeedStore",
      "outputs": [
        {
          "internalType": "address",
          "name": "",
          "type": "address"
        }
      ],
      "stateMutability": "view",
      "type": "function"
    },
    {
      "inputs": [],
      "name": "decimals",
      "outputs": [
        {
          "internalType": "uint8",
          "name": "",
          "type": "uint8"
        }
      ],
      "stateMutability": "view",
      "type": "function"
    },
    {
      "inputs": [],
      "name": "description",
      "outputs": [
        {
          "internalType": "string",
          "name": "",
          "type": "string"
        }
      ],
      "stateMutability": "view",
      "type": "function"
    },
    {
      "inputs": [
        {
          "internalType": "uint80",
          "name": "_roundId",
          "type": "uint80"
        }
      ],
      "name": "getRoundData",
      "outputs": [
        {
          "internalType": "uint80",
          "name": "",
          "type": "uint80"
        },
        {
          "internalType": "int256",
          "name": "",
          "type": "int256"
        },
        {
          "internalType": "uint256",
          "name": "",
          "type": "uint256"
        },
        {
          "internalType": "uint256",
          "name": "",
          "type": "uint256"
        },
        {
          "internalType": "uint80",
          "name": "",
          "type": "uint80"
        }
      ],
      "stateMutability": "view",
      "type": "function"
    },
    {
      "inputs": [],
      "name": "key",
      "outputs": [
        {
          "internalType": "uint32",
          "name": "",
          "type": "uint32"
        }
      ],
      "stateMutability": "view",
      "type": "function"
    },
    {
      "inputs": [],
      "name": "latestAnswer",
      "outputs": [
        {
          "internalType": "int256",
          "name": "",
          "type": "int256"
        }
      ],
      "stateMutability": "view",
      "type": "function"
    },
    {
      "inputs": [],
      "name": "latestRound",
      "outputs": [
        {
          "internalType": "uint256",
          "name": "",
          "type": "uint256"
        }
      ],
      "stateMutability": "view",
      "type": "function"
    },
    {
      "inputs": [],
      "name": "latestRoundData",
      "outputs": [
        {
          "internalType": "uint80",
          "name": "",
          "type": "uint80"
        },
        {
          "internalType": "int256",
          "name": "",
          "type": "int256"
        },
        {
          "internalType": "uint256",
          "name": "",
          "type": "uint256"
        },
        {
          "internalType": "uint256",
          "name": "",
          "type": "uint256"
        },
        {
          "internalType": "uint80",
          "name": "",
          "type": "uint80"
        }
      ],
      "stateMutability": "view",
      "type": "function"
    }
  ],
  "bytecode": "0x60e06040523480156200001157600080fd5b50604051620009d1380380620009d18339810160408190526200003491620000c1565b60006200004285826200025f565b5060ff90921660805263ffffffff1660a0526001600160a01b031660c052506200032b565b634e487b7160e01b600052604160045260246000fd5b805160ff811681146200008f57600080fd5b919050565b805163ffffffff811681146200008f57600080fd5b80516001600160a01b03811681146200008f57600080fd5b60008060008060808587031215620000d857600080fd5b84516001600160401b0380821115620000f057600080fd5b818701915087601f8301126200010557600080fd5b8151818111156200011a576200011a62000067565b604051601f8201601f19908116603f0116810190838211818310171562000145576200014562000067565b81604052828152602093508a848487010111156200016257600080fd5b600091505b8282101562000186578482018401518183018501529083019062000167565b6000848483010152809850505050620001a18188016200007d565b94505050620001b36040860162000094565b9150620001c360608601620000a9565b905092959194509250565b600181811c90821680620001e357607f821691505b6020821081036200020457634e487b7160e01b600052602260045260246000fd5b50919050565b601f8211156200025a576000816000526020600020601f850160051c81016020861015620002355750805b601f850160051c820191505b81811015620002565782815560010162000241565b5050505b505050565b81516001600160401b038111156200027b576200027b62000067565b62000293816200028c8454620001ce565b846200020a565b602080601f831160018114620002cb5760008415620002b25750858301515b600019600386901b1c1916600185901b17855562000256565b600085815260208120601f198616915b82811015620002fc57888601518255948401946001909101908401620002db565b50858210156200031b5787850151600019600388901b60f8161c191681555b5050505050600190811b01905550565b60805160a05160c051610640620003916000396000818161013f015281816101f30152818161024401528181610325015261038901526000818160d0015281816101d20152818161022301528181610304015261036801526000609201526106406000f3fe608060405234801561001057600080fd5b50600436106100885760003560e01c80637284e4161161005b5780637284e416146101255780638b90201d1461013a5780639a6fc8f514610179578063feaf968c146101c357600080fd5b8063313ce5671461008d5780633943380c146100cb57806350d25bcd14610107578063668a0f021461011d575b600080fd5b6100b47f000000000000000000000000000000000000000000000000000000000000000081565b60405160ff90911681526020015b60405180910390f35b6100f27f000000000000000000000000000000000000000000000000000000000000000081565b60405163ffffffff90911681526020016100c2565b61010f6101cb565b6040519081526020016100c2565b61010f61021c565b61012d610268565b6040516100c2919061054e565b6101617f000000000000000000000000000000000000000000000000000000000000000081565b6040516001600160a01b0390911681526020016100c2565b61018c61018736600461059d565b6102f6565b6040805169ffffffffffffffffffff968716815260208101959095528401929092526060830152909116608082015260a0016100c2565b61018c61035b565b60006102177f00000000000000000000000000000000000000000000000000000000000000007f00000000000000000000000000000000000000000000000000000000000000006103be565b905090565b60006102177f00000000000000000000000000000000000000000000000000000000000000007f0000000000000000000000000000000000000000000000000000000000000000610404565b60008054610275906105d0565b80601f01602080910402602001604051908101604052809291908181526020018280546102a1906105d0565b80156102ee5780601f106102c3576101008083540402835291602001916102ee565b820191906000526020600020905b8154815290600101906020018083116102d157829003601f168201915b505050505081565b6000806000806000610349867f00000000000000000000000000000000000000000000000000000000000000007f0000000000000000000000000000000000000000000000000000000000000000610436565b939a9299509097509550909350915050565b60008060008060006103ad7f00000000000000000000000000000000000000000000000000000000000000007f00000000000000000000000000000000000000000000000000000000000000006104d1565b945094509450945094509091929394565b6040516001600160e01b03196380000000841760e01b1660208201526000906103fa90839060240160405160208183030381529060405261052a565b60401c9392505050565b60006040518363400000001760e01b60005260408160046000865afa8061042a57600080fd5b50602001519392505050565b60008060008060006104be6104a9878963200000001760e01b8b604051602401610472919069ffffffffffffffffffff91909116815260200190565b60408051601f198184030181529190526020810180516001600160e01b03166001600160e01b03199093169290921790915261052a565b604081901c9167ffffffffffffffff90911690565b9899909897508796508995509350505050565b6000806000806000806040518863c00000001760e01b600052604081600460008b5afa806104fe57600080fd5b50805160209091015199604082901c995067ffffffffffffffff90911697508796508995509350505050565b6000604051602081845160208601875afa8061054557600080fd5b50519392505050565b60006020808352835180602085015260005b8181101561057c57858101830151858201604001528201610560565b506000604082860101526040601f19601f8301168501019250505092915050565b6000602082840312156105af57600080fd5b813569ffffffffffffffffffff811681146105c957600080fd5b9392505050565b600181811c908216806105e457607f821691505b60208210810361060457634e487b7160e01b600052602260045260246000fd5b5091905056fea2646970667358221220df1808e86f1cc6a6d63f83fcc8077268f06d89382182c510d8ef39e2ed0c7f3664736f6c63430008180033",
  "linkReferences": {},
  "deployedLinkReferences": {}
}