{
  "_format": "hh-sol-artifact-1",
  "contractName": "DataFeedStoreGenericV1",
  "sourceName": "contracts/test/DataFeedStoreGenericV1.sol",
  "abi": [
    {
      "inputs": [],
      "name": "NotAuthorized",
      "type": "error"
    },
    {
      "inputs": [],
      "name": "WrongInputLength",
      "type": "error"
    },
    {
      "inputs": [
        {
          "internalType": "uint256",
          "name": "",
          "type": "uint256"
        }
      ],
      "name": "dataFeeds",
      "outputs": [
        {
          "internalType": "bytes32",
          "name": "",
          "type": "bytes32"
        }
      ],
      "stateMutability": "view",
      "type": "function"
    },
    {
      "inputs": [
        {
          "internalType": "uint256",
          "name": "key",
          "type": "uint256"
        }
      ],
      "name": "getDataFeed",
      "outputs": [
        {
          "internalType": "bytes32",
          "name": "",
          "type": "bytes32"
        }
      ],
      "stateMutability": "view",
      "type": "function"
    },
    {
      "inputs": [],
      "name": "owner",
      "outputs": [
        {
          "internalType": "address",
          "name": "",
          "type": "address"
        }
      ],
      "stateMutability": "view",
      "type": "function"
    },
    {
      "inputs": [
        {
          "internalType": "uint256[]",
          "name": "keys",
          "type": "uint256[]"
        },
        {
          "internalType": "bytes32[]",
          "name": "values",
          "type": "bytes32[]"
        }
      ],
      "name": "setFeeds",
      "outputs": [],
      "stateMutability": "nonpayable",
      "type": "function"
    }
  ],
  "bytecode": "0x60a060405234801561001057600080fd5b50336080526080516102e06100366000396000818160a9015261010301526102e06000f3fe608060405234801561001057600080fd5b506004361061004c5760003560e01c80630f6cd120146100515780631c4e987b146100845780638da5cb5b146100a4578063da533453146100e3575b600080fd5b61007161005f3660046101c3565b60006020819052908152604090205481565b6040519081526020015b60405180910390f35b6100716100923660046101c3565b60009081526020819052604090205490565b6100cb7f000000000000000000000000000000000000000000000000000000000000000081565b6040516001600160a01b03909116815260200161007b565b6100f66100f1366004610228565b6100f8565b005b336001600160a01b037f000000000000000000000000000000000000000000000000000000000000000016146101415760405163ea8e4eb560e01b815260040160405180910390fd5b82811461016157604051631201d2c760e31b815260040160405180910390fd5b60005b838110156101bc5782828281811061017e5761017e610294565b9050602002013560008087878581811061019a5761019a610294565b6020908102929092013583525081019190915260400160002055600101610164565b5050505050565b6000602082840312156101d557600080fd5b5035919050565b60008083601f8401126101ee57600080fd5b50813567ffffffffffffffff81111561020657600080fd5b6020830191508360208260051b850101111561022157600080fd5b9250929050565b6000806000806040858703121561023e57600080fd5b843567ffffffffffffffff8082111561025657600080fd5b610262888389016101dc565b9096509450602087013591508082111561027b57600080fd5b50610288878288016101dc565b95989497509550505050565b634e487b7160e01b600052603260045260246000fdfea2646970667358221220095eb0cfdf865ddb4fee8bd1cee1e1e0f7ac7e6e32189a486a043396b618bf8a64736f6c63430008180033",
  "linkReferences": {},
  "deployedLinkReferences": {}
}