{
  "_format": "hh-sol-artifact-1",
  "contractName": "DataFeedV2Consumer",
  "sourceName": "contracts/test/consumers/DataFeedV2Consumer.sol",
  "abi": [
    {
      "inputs": [
        {
          "internalType": "address",
          "name": "_dataFeedStore",
          "type": "address"
        }
      ],
      "stateMutability": "nonpayable",
      "type": "constructor"
    },
    {
      "inputs": [],
      "name": "GetFeedByIdFailed",
      "type": "error"
    },
    {
      "inputs": [],
      "name": "dataFeedStore",
      "outputs": [
        {
          "internalType": "address",
          "name": "",
          "type": "address"
        }
      ],
      "stateMutability": "view",
      "type": "function"
    },
    {
      "inputs": [
        {
          "internalType": "uint32",
          "name": "key",
          "type": "uint32"
        }
      ],
      "name": "getFeedById",
      "outputs": [
        {
          "internalType": "bytes32",
          "name": "",
          "type": "bytes32"
        }
      ],
      "stateMutability": "view",
      "type": "function"
    },
    {
      "inputs": [
        {
          "internalType": "uint32[]",
          "name": "keys",
          "type": "uint32[]"
        }
      ],
      "name": "setMultipleFetchedFeedsById",
      "outputs": [],
      "stateMutability": "nonpayable",
      "type": "function"
    }
  ],
  "bytecode": "0x60a060405234801561001057600080fd5b5060405161032d38038061032d83398101604081905261002f91610040565b6001600160a01b0316608052610070565b60006020828403121561005257600080fd5b81516001600160a01b038116811461006957600080fd5b9392505050565b60805161029c6100916000396000818160600152610160015261029c6000f3fe608060405234801561001057600080fd5b50600436106100415760003560e01c806315d27322146100465780638b90201d1461005b578063f67c36871461009f575b600080fd5b6100596100543660046101ae565b6100d3565b005b6100827f000000000000000000000000000000000000000000000000000000000000000081565b6040516001600160a01b0390911681526020015b60405180910390f35b6100c56100ad366004610223565b63ffffffff1660009081526020819052604090205490565b604051908152602001610096565b60005b818110156101565761010d8383838181106100f3576100f3610250565b90506020020160208101906101089190610223565b61015b565b60008085858581811061012257610122610250565b90506020020160208101906101379190610223565b63ffffffff1681526020810191909152604001600020556001016100d6565b505050565b6000807f000000000000000000000000000000000000000000000000000000000000000090506040518363800000001760e01b60005260208160046000855afa806101a557600080fd5b50519392505050565b600080602083850312156101c157600080fd5b823567ffffffffffffffff808211156101d957600080fd5b818501915085601f8301126101ed57600080fd5b8135818111156101fc57600080fd5b8660208260051b850101111561021157600080fd5b60209290920196919550909350505050565b60006020828403121561023557600080fd5b813563ffffffff8116811461024957600080fd5b9392505050565b634e487b7160e01b600052603260045260246000fdfea264697066735822122011ca40899704b584d4dba1ea33ab5dd142968044a02cf054bab3c48f7124df4664736f6c63430008180033",
  "linkReferences": {},
  "deployedLinkReferences": {}
}